ARM GAS  C:\Users\Usuario\AppData\Local\Temp\ccFtlcAy.s 			page 1


   1              		.syntax unified
   2              		.cpu cortex-m0plus
   3              		.fpu softvfp
   4              		.eabi_attribute 20, 1
   5              		.eabi_attribute 21, 1
   6              		.eabi_attribute 23, 3
   7              		.eabi_attribute 24, 1
   8              		.eabi_attribute 25, 1
   9              		.eabi_attribute 26, 1
  10              		.eabi_attribute 30, 1
  11              		.eabi_attribute 34, 0
  12              		.eabi_attribute 18, 4
  13              		.thumb
  14              		.syntax unified
  15              		.file	"capsense_INT.c"
  16              		.text
  17              	.Ltext0:
  18              		.cfi_sections	.debug_frame
  19              		.section	.text.capsense_SsCSDPostScan,"ax",%progbits
  20              		.align	2
  21              		.code	16
  22              		.thumb_func
  23              		.type	capsense_SsCSDPostScan, %function
  24              	capsense_SsCSDPostScan:
  25              	.LFB3:
  26              		.file 1 "Generated_Source\\PSoC4\\capsense_INT.c"
   1:Generated_Source\PSoC4/capsense_INT.c **** /***************************************************************************//**
   2:Generated_Source\PSoC4/capsense_INT.c **** * \file capsense_INT.c
   3:Generated_Source\PSoC4/capsense_INT.c **** * \version 7.10
   4:Generated_Source\PSoC4/capsense_INT.c **** *
   5:Generated_Source\PSoC4/capsense_INT.c **** * \brief
   6:Generated_Source\PSoC4/capsense_INT.c **** *   This file contains the source code for implementation of the Component's
   7:Generated_Source\PSoC4/capsense_INT.c **** *   Interrupt Service Routine (ISR).
   8:Generated_Source\PSoC4/capsense_INT.c **** *
   9:Generated_Source\PSoC4/capsense_INT.c **** * \see capsense v7.10 Datasheet
  10:Generated_Source\PSoC4/capsense_INT.c **** *
  11:Generated_Source\PSoC4/capsense_INT.c **** *//*****************************************************************************
  12:Generated_Source\PSoC4/capsense_INT.c **** * Copyright (2016-2019), Cypress Semiconductor Corporation.
  13:Generated_Source\PSoC4/capsense_INT.c **** ********************************************************************************
  14:Generated_Source\PSoC4/capsense_INT.c **** * This software is owned by Cypress Semiconductor Corporation (Cypress) and is
  15:Generated_Source\PSoC4/capsense_INT.c **** * protected by and subject to worldwide patent protection (United States and
  16:Generated_Source\PSoC4/capsense_INT.c **** * foreign), United States copyright laws and international treaty provisions.
  17:Generated_Source\PSoC4/capsense_INT.c **** * Cypress hereby grants to licensee a personal, non-exclusive, non-transferable
  18:Generated_Source\PSoC4/capsense_INT.c **** * license to copy, use, modify, create derivative works of, and compile the
  19:Generated_Source\PSoC4/capsense_INT.c **** * Cypress Source Code and derivative works for the sole purpose of creating
  20:Generated_Source\PSoC4/capsense_INT.c **** * custom software in support of licensee product to be used only in conjunction
  21:Generated_Source\PSoC4/capsense_INT.c **** * with a Cypress integrated circuit as specified in the applicable agreement.
  22:Generated_Source\PSoC4/capsense_INT.c **** * Any reproduction, modification, translation, compilation, or representation of
  23:Generated_Source\PSoC4/capsense_INT.c **** * this software except as specified above is prohibited without the express
  24:Generated_Source\PSoC4/capsense_INT.c **** * written permission of Cypress.
  25:Generated_Source\PSoC4/capsense_INT.c **** *
  26:Generated_Source\PSoC4/capsense_INT.c **** * Disclaimer: CYPRESS MAKES NO WARRANTY OF ANY KIND, EXPRESS OR IMPLIED, WITH
  27:Generated_Source\PSoC4/capsense_INT.c **** * REGARD TO THIS MATERIAL, INCLUDING, BUT NOT LIMITED TO, THE IMPLIED
  28:Generated_Source\PSoC4/capsense_INT.c **** * WARRANTIES OF MERCHANTABILITY AND FITNESS FOR A PARTICULAR PURPOSE.
  29:Generated_Source\PSoC4/capsense_INT.c **** * Cypress reserves the right to make changes without further notice to the
  30:Generated_Source\PSoC4/capsense_INT.c **** * materials described herein. Cypress does not assume any liability arising out
  31:Generated_Source\PSoC4/capsense_INT.c **** * of the application or use of any product or circuit described herein. Cypress
ARM GAS  C:\Users\Usuario\AppData\Local\Temp\ccFtlcAy.s 			page 2


  32:Generated_Source\PSoC4/capsense_INT.c **** * does not authorize its products for use as critical components in life-support
  33:Generated_Source\PSoC4/capsense_INT.c **** * systems where a malfunction or failure may reasonably be expected to result in
  34:Generated_Source\PSoC4/capsense_INT.c **** * significant injury to the user. The inclusion of Cypress' product in a life-
  35:Generated_Source\PSoC4/capsense_INT.c **** * support systems application implies that the manufacturer assumes all risk of
  36:Generated_Source\PSoC4/capsense_INT.c **** * such use and in doing so indemnifies Cypress against all charges. Use may be
  37:Generated_Source\PSoC4/capsense_INT.c **** * limited by and subject to the applicable Cypress software license agreement.
  38:Generated_Source\PSoC4/capsense_INT.c **** *******************************************************************************/
  39:Generated_Source\PSoC4/capsense_INT.c **** #include "cytypes.h"
  40:Generated_Source\PSoC4/capsense_INT.c **** #include "cyfitter.h"
  41:Generated_Source\PSoC4/capsense_INT.c **** #include "capsense_Configuration.h"
  42:Generated_Source\PSoC4/capsense_INT.c **** #include "capsense_Structure.h"
  43:Generated_Source\PSoC4/capsense_INT.c **** #include "capsense_Sensing.h"
  44:Generated_Source\PSoC4/capsense_INT.c **** #if (capsense_ENABLE == capsense_CSD_EN)
  45:Generated_Source\PSoC4/capsense_INT.c ****     #include "capsense_SensingCSD_LL.h"
  46:Generated_Source\PSoC4/capsense_INT.c **** #endif /* (capsense_ENABLE == capsense_CSD_EN) */
  47:Generated_Source\PSoC4/capsense_INT.c **** #include "cyapicallbacks.h"
  48:Generated_Source\PSoC4/capsense_INT.c **** 
  49:Generated_Source\PSoC4/capsense_INT.c **** /*******************************************************************************
  50:Generated_Source\PSoC4/capsense_INT.c **** * Static Function Prototypes
  51:Generated_Source\PSoC4/capsense_INT.c **** *******************************************************************************/
  52:Generated_Source\PSoC4/capsense_INT.c **** /**
  53:Generated_Source\PSoC4/capsense_INT.c **** * \cond SECTION_C_INTERNAL
  54:Generated_Source\PSoC4/capsense_INT.c **** * \addtogroup group_c_internal
  55:Generated_Source\PSoC4/capsense_INT.c **** * \{
  56:Generated_Source\PSoC4/capsense_INT.c **** */
  57:Generated_Source\PSoC4/capsense_INT.c **** 
  58:Generated_Source\PSoC4/capsense_INT.c **** #if (((capsense_ENABLE == capsense_CSD_EN) || (capsense_ENABLE == capsense_CSD_CSX_EN)) && \
  59:Generated_Source\PSoC4/capsense_INT.c ****      (capsense_ENABLE == capsense_MULTI_FREQ_SCAN_EN))
  60:Generated_Source\PSoC4/capsense_INT.c ****     static void capsense_SsNextFrequencyScan(void);
  61:Generated_Source\PSoC4/capsense_INT.c **** #endif /* (((capsense_ENABLE == capsense_CSD_EN) || (capsense_ENABLE == capsense_CSD_CSX_EN)) && \
  62:Generated_Source\PSoC4/capsense_INT.c ****             (capsense_ENABLE == capsense_MULTI_FREQ_SCAN_EN)) */
  63:Generated_Source\PSoC4/capsense_INT.c **** 
  64:Generated_Source\PSoC4/capsense_INT.c **** #if ((capsense_ENABLE == capsense_CSD_EN) || (capsense_ENABLE == capsense_CSD_CSX_EN))
  65:Generated_Source\PSoC4/capsense_INT.c ****     static void capsense_SsCSDPostScan(void);
  66:Generated_Source\PSoC4/capsense_INT.c ****     static void capsense_SsCSDInitNextScan(void);
  67:Generated_Source\PSoC4/capsense_INT.c **** #endif /* ((capsense_ENABLE == capsense_CSD_EN) || (capsense_ENABLE == capsense_CSD_CSX_EN)) */
  68:Generated_Source\PSoC4/capsense_INT.c **** /** \}
  69:Generated_Source\PSoC4/capsense_INT.c **** * \endcond */
  70:Generated_Source\PSoC4/capsense_INT.c **** 
  71:Generated_Source\PSoC4/capsense_INT.c **** 
  72:Generated_Source\PSoC4/capsense_INT.c **** /**
  73:Generated_Source\PSoC4/capsense_INT.c **** * \cond SECTION_C_INTERRUPT
  74:Generated_Source\PSoC4/capsense_INT.c **** * \addtogroup group_c_interrupt
  75:Generated_Source\PSoC4/capsense_INT.c **** * \{
  76:Generated_Source\PSoC4/capsense_INT.c **** */
  77:Generated_Source\PSoC4/capsense_INT.c **** 
  78:Generated_Source\PSoC4/capsense_INT.c **** 
  79:Generated_Source\PSoC4/capsense_INT.c **** #if ((capsense_ENABLE == capsense_CSD_EN) || (capsense_ENABLE == capsense_CSD_CSX_EN))
  80:Generated_Source\PSoC4/capsense_INT.c **** 
  81:Generated_Source\PSoC4/capsense_INT.c **** #if (capsense_ENABLE == capsense_CSDV2)
  82:Generated_Source\PSoC4/capsense_INT.c ****     /* Fourth-generation HW block part */
  83:Generated_Source\PSoC4/capsense_INT.c **** 
  84:Generated_Source\PSoC4/capsense_INT.c ****     /*******************************************************************************
  85:Generated_Source\PSoC4/capsense_INT.c ****     * Function Name: capsense_CSDPostSingleScan
  86:Generated_Source\PSoC4/capsense_INT.c ****     ****************************************************************************//**
  87:Generated_Source\PSoC4/capsense_INT.c ****     *
  88:Generated_Source\PSoC4/capsense_INT.c ****     * \brief
ARM GAS  C:\Users\Usuario\AppData\Local\Temp\ccFtlcAy.s 			page 3


  89:Generated_Source\PSoC4/capsense_INT.c ****     *  This is an internal ISR function for the single-sensor scanning implementation.
  90:Generated_Source\PSoC4/capsense_INT.c ****     *
  91:Generated_Source\PSoC4/capsense_INT.c ****     * \details
  92:Generated_Source\PSoC4/capsense_INT.c ****     *  This ISR handler is triggered when the user calls the
  93:Generated_Source\PSoC4/capsense_INT.c ****     *  capsense_CSDScanExt() function.
  94:Generated_Source\PSoC4/capsense_INT.c ****     *
  95:Generated_Source\PSoC4/capsense_INT.c ****     *  The following tasks are performed for Third-generation HW block:
  96:Generated_Source\PSoC4/capsense_INT.c ****     *    1. Disable the CSD interrupt.
  97:Generated_Source\PSoC4/capsense_INT.c ****     *    2. Read the Counter register and update the data structure with raw data.
  98:Generated_Source\PSoC4/capsense_INT.c ****     *    3. Connect the Vref buffer to the AMUX bus.
  99:Generated_Source\PSoC4/capsense_INT.c ****     *    4. Update the Scan Counter.
 100:Generated_Source\PSoC4/capsense_INT.c ****     *    5. Reset the BUSY flag.
 101:Generated_Source\PSoC4/capsense_INT.c ****     *    6. Enable the CSD interrupt.
 102:Generated_Source\PSoC4/capsense_INT.c ****     *
 103:Generated_Source\PSoC4/capsense_INT.c ****     *  The following tasks are performed for Fourth-generation HW block:
 104:Generated_Source\PSoC4/capsense_INT.c ****     *    1. Check if the raw data is not noisy.
 105:Generated_Source\PSoC4/capsense_INT.c ****     *    2. Read the Counter register and update the data structure with raw data.
 106:Generated_Source\PSoC4/capsense_INT.c ****     *    3. Configure and start the scan for the next frequency if the
 107:Generated_Source\PSoC4/capsense_INT.c ****     *      multi-frequency is enabled.
 108:Generated_Source\PSoC4/capsense_INT.c ****     *    4. Update the Scan Counter.
 109:Generated_Source\PSoC4/capsense_INT.c ****     *    5. Reset the BUSY flag.
 110:Generated_Source\PSoC4/capsense_INT.c ****     *    6. Enable the CSD interrupt.
 111:Generated_Source\PSoC4/capsense_INT.c ****     *
 112:Generated_Source\PSoC4/capsense_INT.c ****     *  The ISR handler changes the IMO and initializes scanning for the next frequency
 113:Generated_Source\PSoC4/capsense_INT.c ****     *  channels when multi-frequency scanning is enabled.
 114:Generated_Source\PSoC4/capsense_INT.c ****     *
 115:Generated_Source\PSoC4/capsense_INT.c ****     *  This function has two Macro Callbacks that allow calling the user code
 116:Generated_Source\PSoC4/capsense_INT.c ****     *  from macros specified in Component's generated code. Refer to the
 117:Generated_Source\PSoC4/capsense_INT.c ****     *  \ref group_c_macrocallbacks section of the PSoC Creator User Guide
 118:Generated_Source\PSoC4/capsense_INT.c ****     *  for details.
 119:Generated_Source\PSoC4/capsense_INT.c ****     *
 120:Generated_Source\PSoC4/capsense_INT.c ****     *******************************************************************************/
 121:Generated_Source\PSoC4/capsense_INT.c ****     CY_ISR(capsense_CSDPostSingleScan)
 122:Generated_Source\PSoC4/capsense_INT.c ****     {
 123:Generated_Source\PSoC4/capsense_INT.c ****         #ifdef capsense_ENTRY_CALLBACK
 124:Generated_Source\PSoC4/capsense_INT.c ****             capsense_EntryCallback();
 125:Generated_Source\PSoC4/capsense_INT.c ****         #endif /* capsense_ENTRY_CALLBACK */
 126:Generated_Source\PSoC4/capsense_INT.c **** 
 127:Generated_Source\PSoC4/capsense_INT.c ****         /* Clear pending interrupt */
 128:Generated_Source\PSoC4/capsense_INT.c ****         CY_SET_REG32(capsense_INTR_PTR, capsense_INTR_SET_MASK);
 129:Generated_Source\PSoC4/capsense_INT.c **** 
 130:Generated_Source\PSoC4/capsense_INT.c ****         #if (capsense_ENABLE == capsense_CSD_NOISE_METRIC_EN)
 131:Generated_Source\PSoC4/capsense_INT.c ****             if ((capsense_CSD_NOISE_METRIC_TH < ((CY_GET_REG32(capsense_RESULT_VAL1_PTR) &
 132:Generated_Source\PSoC4/capsense_INT.c ****                                                         capsense_RESULT_VAL1_BAD_CONVS_MASK) >>
 133:Generated_Source\PSoC4/capsense_INT.c ****                                                         capsense_RESULT_VAL1_BAD_CONVS_SHIFT)) &&
 134:Generated_Source\PSoC4/capsense_INT.c ****                                                         (0u < capsense_badConversionsNum))
 135:Generated_Source\PSoC4/capsense_INT.c ****             {
 136:Generated_Source\PSoC4/capsense_INT.c ****                 /* Decrement bad conversions number */
 137:Generated_Source\PSoC4/capsense_INT.c ****                 capsense_badConversionsNum--;
 138:Generated_Source\PSoC4/capsense_INT.c **** 
 139:Generated_Source\PSoC4/capsense_INT.c ****                 /* Start the re-scan */
 140:Generated_Source\PSoC4/capsense_INT.c ****                 CY_SET_REG32(capsense_SEQ_START_PTR, capsense_SEQ_START_AZ0_SKIP_MASK |
 141:Generated_Source\PSoC4/capsense_INT.c ****                                                              capsense_SEQ_START_AZ1_SKIP_MASK |
 142:Generated_Source\PSoC4/capsense_INT.c ****                                                              capsense_SEQ_START_START_MASK);
 143:Generated_Source\PSoC4/capsense_INT.c ****             }
 144:Generated_Source\PSoC4/capsense_INT.c ****             else
 145:Generated_Source\PSoC4/capsense_INT.c ****             {
ARM GAS  C:\Users\Usuario\AppData\Local\Temp\ccFtlcAy.s 			page 4


 146:Generated_Source\PSoC4/capsense_INT.c ****         #endif /* (capsense_ENABLE == capsense_CSD_NOISE_METRIC_EN) */
 147:Generated_Source\PSoC4/capsense_INT.c **** 
 148:Generated_Source\PSoC4/capsense_INT.c ****             capsense_SsCSDPostScan();
 149:Generated_Source\PSoC4/capsense_INT.c **** 
 150:Generated_Source\PSoC4/capsense_INT.c ****             #if (capsense_ENABLE == capsense_MULTI_FREQ_SCAN_EN)
 151:Generated_Source\PSoC4/capsense_INT.c ****                 if (capsense_FREQ_CHANNEL_2 > capsense_scanFreqIndex)
 152:Generated_Source\PSoC4/capsense_INT.c ****                 {
 153:Generated_Source\PSoC4/capsense_INT.c ****                     /* Scan the next channel */
 154:Generated_Source\PSoC4/capsense_INT.c ****                     capsense_SsNextFrequencyScan();
 155:Generated_Source\PSoC4/capsense_INT.c ****                 }
 156:Generated_Source\PSoC4/capsense_INT.c ****                 else
 157:Generated_Source\PSoC4/capsense_INT.c ****                 {
 158:Generated_Source\PSoC4/capsense_INT.c ****                     /* All channels are scanned. Set IMO to zero channel */
 159:Generated_Source\PSoC4/capsense_INT.c ****                     capsense_scanFreqIndex = capsense_FREQ_CHANNEL_0;
 160:Generated_Source\PSoC4/capsense_INT.c **** 
 161:Generated_Source\PSoC4/capsense_INT.c ****                     #if (capsense_MFS_IMO == capsense_MFS_METHOD)
 162:Generated_Source\PSoC4/capsense_INT.c ****                         capsense_SsChangeImoFreq(capsense_FREQ_CHANNEL_0);
 163:Generated_Source\PSoC4/capsense_INT.c ****                     #else
 164:Generated_Source\PSoC4/capsense_INT.c ****                         capsense_SsChangeClkFreq(capsense_FREQ_CHANNEL_0);
 165:Generated_Source\PSoC4/capsense_INT.c ****                     #endif /* (capsense_MFS_IMO == capsense_MFS_METHOD) */
 166:Generated_Source\PSoC4/capsense_INT.c **** 
 167:Generated_Source\PSoC4/capsense_INT.c ****                     #if (capsense_ENABLE == capsense_BLOCK_OFF_AFTER_SCAN_EN)
 168:Generated_Source\PSoC4/capsense_INT.c ****                         /* Disable Fourth-generation HW block */
 169:Generated_Source\PSoC4/capsense_INT.c ****                         CY_SET_REG32(capsense_CONFIG_PTR, capsense_configCsd);
 170:Generated_Source\PSoC4/capsense_INT.c ****                     #endif /* (capsense_ENABLE == capsense_BLOCK_OFF_AFTER_SCAN_EN) */
 171:Generated_Source\PSoC4/capsense_INT.c **** 
 172:Generated_Source\PSoC4/capsense_INT.c ****                     /* Update Scan Counter */
 173:Generated_Source\PSoC4/capsense_INT.c ****                     capsense_dsRam.scanCounter++;
 174:Generated_Source\PSoC4/capsense_INT.c **** 
 175:Generated_Source\PSoC4/capsense_INT.c ****                     /* Sensor is totally scanned. Reset BUSY flag */
 176:Generated_Source\PSoC4/capsense_INT.c ****                     capsense_dsRam.status &= ~(capsense_SW_STS_BUSY | capsense_WDGT_SW_STS_BUSY);
 177:Generated_Source\PSoC4/capsense_INT.c ****                 }
 178:Generated_Source\PSoC4/capsense_INT.c ****             #else
 179:Generated_Source\PSoC4/capsense_INT.c ****                 {
 180:Generated_Source\PSoC4/capsense_INT.c ****                     #if (capsense_ENABLE == capsense_BLOCK_OFF_AFTER_SCAN_EN)
 181:Generated_Source\PSoC4/capsense_INT.c ****                         /* Disable Fourth-generation HW block */
 182:Generated_Source\PSoC4/capsense_INT.c ****                         CY_SET_REG32(capsense_CONFIG_PTR, capsense_configCsd);
 183:Generated_Source\PSoC4/capsense_INT.c ****                     #endif /* (capsense_ENABLE == capsense_BLOCK_OFF_AFTER_SCAN_EN) */
 184:Generated_Source\PSoC4/capsense_INT.c **** 
 185:Generated_Source\PSoC4/capsense_INT.c ****                     /* Update Scan Counter */
 186:Generated_Source\PSoC4/capsense_INT.c ****                     capsense_dsRam.scanCounter++;
 187:Generated_Source\PSoC4/capsense_INT.c **** 
 188:Generated_Source\PSoC4/capsense_INT.c ****                     /* Sensor is totally scanned. Reset BUSY flag */
 189:Generated_Source\PSoC4/capsense_INT.c ****                     capsense_dsRam.status &= ~(capsense_SW_STS_BUSY | capsense_WDGT_SW_STS_BUSY);
 190:Generated_Source\PSoC4/capsense_INT.c ****                 }
 191:Generated_Source\PSoC4/capsense_INT.c ****             #endif /* (capsense_ENABLE == capsense_MULTI_FREQ_SCAN_EN) */
 192:Generated_Source\PSoC4/capsense_INT.c ****     #if (capsense_ENABLE == capsense_CSD_NOISE_METRIC_EN)
 193:Generated_Source\PSoC4/capsense_INT.c ****         }
 194:Generated_Source\PSoC4/capsense_INT.c ****     #endif /* (capsense_ENABLE == capsense_CSD_NOISE_METRIC_EN) */
 195:Generated_Source\PSoC4/capsense_INT.c **** 
 196:Generated_Source\PSoC4/capsense_INT.c ****         #ifdef capsense_EXIT_CALLBACK
 197:Generated_Source\PSoC4/capsense_INT.c ****             capsense_ExitCallback();
 198:Generated_Source\PSoC4/capsense_INT.c ****         #endif /* capsense_EXIT_CALLBACK */
 199:Generated_Source\PSoC4/capsense_INT.c ****     }
 200:Generated_Source\PSoC4/capsense_INT.c **** 
 201:Generated_Source\PSoC4/capsense_INT.c **** 
 202:Generated_Source\PSoC4/capsense_INT.c ****     /*******************************************************************************
ARM GAS  C:\Users\Usuario\AppData\Local\Temp\ccFtlcAy.s 			page 5


 203:Generated_Source\PSoC4/capsense_INT.c ****     * Function Name: capsense_CSDPostMultiScan
 204:Generated_Source\PSoC4/capsense_INT.c ****     ****************************************************************************//**
 205:Generated_Source\PSoC4/capsense_INT.c ****     *
 206:Generated_Source\PSoC4/capsense_INT.c ****     * \brief
 207:Generated_Source\PSoC4/capsense_INT.c ****     *  This is an internal ISR function for the multiple-sensor scanning
 208:Generated_Source\PSoC4/capsense_INT.c ****     *  implementation.
 209:Generated_Source\PSoC4/capsense_INT.c ****     *
 210:Generated_Source\PSoC4/capsense_INT.c ****     * \details
 211:Generated_Source\PSoC4/capsense_INT.c ****     *  This ISR handler is triggered when the user calls the
 212:Generated_Source\PSoC4/capsense_INT.c ****     *  capsense_Scan() or capsense_ScanAllWidgets() APIs.
 213:Generated_Source\PSoC4/capsense_INT.c ****     *
 214:Generated_Source\PSoC4/capsense_INT.c ****     *  The following tasks are performed:
 215:Generated_Source\PSoC4/capsense_INT.c ****     *    1. Disable the CSD interrupt.
 216:Generated_Source\PSoC4/capsense_INT.c ****     *    2. Read the Counter register and update the data structure with raw data.
 217:Generated_Source\PSoC4/capsense_INT.c ****     *    3. Connect the Vref buffer to the AMUX bus.
 218:Generated_Source\PSoC4/capsense_INT.c ****     *    4. Disable the CSD block (after the widget has been scanned).
 219:Generated_Source\PSoC4/capsense_INT.c ****     *    5. Update the Scan Counter.
 220:Generated_Source\PSoC4/capsense_INT.c ****     *    6. Reset the BUSY flag.
 221:Generated_Source\PSoC4/capsense_INT.c ****     *    7. Enable the CSD interrupt.
 222:Generated_Source\PSoC4/capsense_INT.c ****     *
 223:Generated_Source\PSoC4/capsense_INT.c ****     *  The ISR handler initializes scanning for the previous sensor when the
 224:Generated_Source\PSoC4/capsense_INT.c ****     *  widget has more than one sensor.
 225:Generated_Source\PSoC4/capsense_INT.c ****     *  The ISR handler initializes scanning for the next widget when the
 226:Generated_Source\PSoC4/capsense_INT.c ****     *  capsense_ScanAllWidgets() APIs are called and the project has
 227:Generated_Source\PSoC4/capsense_INT.c ****     *  more than one widget.
 228:Generated_Source\PSoC4/capsense_INT.c ****     *  The ISR handler changes the IMO and initializes scanning for the next
 229:Generated_Source\PSoC4/capsense_INT.c ****     *  frequency channels when multi-frequency scanning is enabled.
 230:Generated_Source\PSoC4/capsense_INT.c ****     *
 231:Generated_Source\PSoC4/capsense_INT.c ****     *  This function has two Macro Callbacks that allow calling the user
 232:Generated_Source\PSoC4/capsense_INT.c ****     *  code from macros specified in Component's generated code. Refer to the
 233:Generated_Source\PSoC4/capsense_INT.c ****     *  \ref group_c_macrocallbacks section of the PSoC Creator User Guide
 234:Generated_Source\PSoC4/capsense_INT.c ****     *  for details.
 235:Generated_Source\PSoC4/capsense_INT.c ****     *
 236:Generated_Source\PSoC4/capsense_INT.c ****     *******************************************************************************/
 237:Generated_Source\PSoC4/capsense_INT.c ****     CY_ISR(capsense_CSDPostMultiScan)
 238:Generated_Source\PSoC4/capsense_INT.c ****     {
 239:Generated_Source\PSoC4/capsense_INT.c ****         /* Declare and initialize ptr to sensor IO structure to appropriate address */
 240:Generated_Source\PSoC4/capsense_INT.c ****         capsense_FLASH_IO_STRUCT const *curSnsIOPtr = (capsense_FLASH_IO_STRUCT const *)
 241:Generated_Source\PSoC4/capsense_INT.c ****                                                           capsense_dsFlash.wdgtArray[capsense_widge
 242:Generated_Source\PSoC4/capsense_INT.c ****                                                           + capsense_sensorIndex;
 243:Generated_Source\PSoC4/capsense_INT.c **** 
 244:Generated_Source\PSoC4/capsense_INT.c ****         #ifdef capsense_ENTRY_CALLBACK
 245:Generated_Source\PSoC4/capsense_INT.c ****             capsense_EntryCallback();
 246:Generated_Source\PSoC4/capsense_INT.c ****         #endif /* capsense_ENTRY_CALLBACK */
 247:Generated_Source\PSoC4/capsense_INT.c **** 
 248:Generated_Source\PSoC4/capsense_INT.c ****         /* Clear pending interrupt */
 249:Generated_Source\PSoC4/capsense_INT.c ****         CY_SET_REG32(capsense_INTR_PTR, capsense_INTR_SET_MASK);
 250:Generated_Source\PSoC4/capsense_INT.c **** 
 251:Generated_Source\PSoC4/capsense_INT.c ****         #if (capsense_ENABLE == capsense_CSD_NOISE_METRIC_EN)
 252:Generated_Source\PSoC4/capsense_INT.c ****             if ((capsense_CSD_NOISE_METRIC_TH < ((CY_GET_REG32(capsense_RESULT_VAL1_PTR) &
 253:Generated_Source\PSoC4/capsense_INT.c ****                                                       capsense_RESULT_VAL1_BAD_CONVS_MASK) >>
 254:Generated_Source\PSoC4/capsense_INT.c ****                                                       capsense_RESULT_VAL1_BAD_CONVS_SHIFT)) &&
 255:Generated_Source\PSoC4/capsense_INT.c ****                                                       (0u < capsense_badConversionsNum))
 256:Generated_Source\PSoC4/capsense_INT.c ****             {
 257:Generated_Source\PSoC4/capsense_INT.c ****                 /* Decrement bad conversions number */
 258:Generated_Source\PSoC4/capsense_INT.c ****                 capsense_badConversionsNum--;
 259:Generated_Source\PSoC4/capsense_INT.c **** 
ARM GAS  C:\Users\Usuario\AppData\Local\Temp\ccFtlcAy.s 			page 6


 260:Generated_Source\PSoC4/capsense_INT.c ****                 /* Start the re-scan */
 261:Generated_Source\PSoC4/capsense_INT.c ****                 CY_SET_REG32(capsense_SEQ_START_PTR, capsense_SEQ_START_AZ0_SKIP_MASK |
 262:Generated_Source\PSoC4/capsense_INT.c ****                                                              capsense_SEQ_START_AZ1_SKIP_MASK |
 263:Generated_Source\PSoC4/capsense_INT.c ****                                                              capsense_SEQ_START_START_MASK);
 264:Generated_Source\PSoC4/capsense_INT.c ****             }
 265:Generated_Source\PSoC4/capsense_INT.c ****             else
 266:Generated_Source\PSoC4/capsense_INT.c ****             {
 267:Generated_Source\PSoC4/capsense_INT.c ****         #endif /* (capsense_ENABLE == capsense_CSD_NOISE_METRIC_EN) */
 268:Generated_Source\PSoC4/capsense_INT.c **** 
 269:Generated_Source\PSoC4/capsense_INT.c ****             capsense_SsCSDPostScan();
 270:Generated_Source\PSoC4/capsense_INT.c **** 
 271:Generated_Source\PSoC4/capsense_INT.c ****             /* Disable sensor when all frequency channels are scanned */
 272:Generated_Source\PSoC4/capsense_INT.c ****             #if (capsense_ENABLE == capsense_MULTI_FREQ_SCAN_EN)
 273:Generated_Source\PSoC4/capsense_INT.c ****                 if (capsense_FREQ_CHANNEL_2 == capsense_scanFreqIndex)
 274:Generated_Source\PSoC4/capsense_INT.c ****             #endif /* (capsense_ENABLE == capsense_MULTI_FREQ_SCAN_EN) */
 275:Generated_Source\PSoC4/capsense_INT.c ****             {
 276:Generated_Source\PSoC4/capsense_INT.c ****                 /* Disable sensor */
 277:Generated_Source\PSoC4/capsense_INT.c ****                 capsense_CSDDisconnectSns(curSnsIOPtr);
 278:Generated_Source\PSoC4/capsense_INT.c ****             }
 279:Generated_Source\PSoC4/capsense_INT.c **** 
 280:Generated_Source\PSoC4/capsense_INT.c ****             #if (capsense_ENABLE == capsense_MULTI_FREQ_SCAN_EN)
 281:Generated_Source\PSoC4/capsense_INT.c ****                 if (capsense_FREQ_CHANNEL_2 > capsense_scanFreqIndex)
 282:Generated_Source\PSoC4/capsense_INT.c ****                 {
 283:Generated_Source\PSoC4/capsense_INT.c ****                      /* Scan the next channel */
 284:Generated_Source\PSoC4/capsense_INT.c ****                     capsense_SsNextFrequencyScan();
 285:Generated_Source\PSoC4/capsense_INT.c ****                 }
 286:Generated_Source\PSoC4/capsense_INT.c ****                 else
 287:Generated_Source\PSoC4/capsense_INT.c ****                 {
 288:Generated_Source\PSoC4/capsense_INT.c ****                      /* All channels are scanned. Set IMO to zero channel */
 289:Generated_Source\PSoC4/capsense_INT.c ****                     capsense_scanFreqIndex = capsense_FREQ_CHANNEL_0;
 290:Generated_Source\PSoC4/capsense_INT.c **** 
 291:Generated_Source\PSoC4/capsense_INT.c ****                     #if (capsense_MFS_IMO == capsense_MFS_METHOD)
 292:Generated_Source\PSoC4/capsense_INT.c ****                         capsense_SsChangeImoFreq(capsense_FREQ_CHANNEL_0);
 293:Generated_Source\PSoC4/capsense_INT.c ****                     #else
 294:Generated_Source\PSoC4/capsense_INT.c ****                         capsense_SsChangeClkFreq(capsense_FREQ_CHANNEL_0);
 295:Generated_Source\PSoC4/capsense_INT.c ****                     #endif /* (capsense_MFS_IMO == capsense_MFS_METHOD) */
 296:Generated_Source\PSoC4/capsense_INT.c **** 
 297:Generated_Source\PSoC4/capsense_INT.c ****                      /* Scan the next sensor */
 298:Generated_Source\PSoC4/capsense_INT.c ****                     capsense_SsCSDInitNextScan();
 299:Generated_Source\PSoC4/capsense_INT.c ****                 }
 300:Generated_Source\PSoC4/capsense_INT.c ****             #else
 301:Generated_Source\PSoC4/capsense_INT.c ****                 /* Scan the next sensor */
 302:Generated_Source\PSoC4/capsense_INT.c ****                 capsense_SsCSDInitNextScan();
 303:Generated_Source\PSoC4/capsense_INT.c ****             #endif /* (capsense_ENABLE == capsense_MULTI_FREQ_SCAN_EN) */
 304:Generated_Source\PSoC4/capsense_INT.c ****         #if (capsense_ENABLE == capsense_CSD_NOISE_METRIC_EN)
 305:Generated_Source\PSoC4/capsense_INT.c ****             }
 306:Generated_Source\PSoC4/capsense_INT.c ****         #endif /* (capsense_ENABLE == capsense_CSD_NOISE_METRIC_EN) */
 307:Generated_Source\PSoC4/capsense_INT.c **** 
 308:Generated_Source\PSoC4/capsense_INT.c ****         #ifdef capsense_EXIT_CALLBACK
 309:Generated_Source\PSoC4/capsense_INT.c ****             capsense_ExitCallback();
 310:Generated_Source\PSoC4/capsense_INT.c ****         #endif /* capsense_EXIT_CALLBACK */
 311:Generated_Source\PSoC4/capsense_INT.c ****     }
 312:Generated_Source\PSoC4/capsense_INT.c **** 
 313:Generated_Source\PSoC4/capsense_INT.c **** 
 314:Generated_Source\PSoC4/capsense_INT.c ****     #if (capsense_ENABLE == capsense_CSD_GANGED_SNS_EN)
 315:Generated_Source\PSoC4/capsense_INT.c ****     /*******************************************************************************
 316:Generated_Source\PSoC4/capsense_INT.c ****     * Function Name: capsense_CSDPostMultiScanGanged
ARM GAS  C:\Users\Usuario\AppData\Local\Temp\ccFtlcAy.s 			page 7


 317:Generated_Source\PSoC4/capsense_INT.c ****     ****************************************************************************//**
 318:Generated_Source\PSoC4/capsense_INT.c ****     *
 319:Generated_Source\PSoC4/capsense_INT.c ****     * \brief
 320:Generated_Source\PSoC4/capsense_INT.c ****     *  This is an internal ISR function for the multiple-sensor scanning
 321:Generated_Source\PSoC4/capsense_INT.c ****     *  implementation for ganged sensors.
 322:Generated_Source\PSoC4/capsense_INT.c ****     *
 323:Generated_Source\PSoC4/capsense_INT.c ****     * \details
 324:Generated_Source\PSoC4/capsense_INT.c ****     *  This ISR handler is triggered when the user calls the
 325:Generated_Source\PSoC4/capsense_INT.c ****     *  capsense_Scan() API for a ganged sensor or the
 326:Generated_Source\PSoC4/capsense_INT.c ****     *  capsense_ScanAllWidgets() API in the project with ganged sensors.
 327:Generated_Source\PSoC4/capsense_INT.c ****     *
 328:Generated_Source\PSoC4/capsense_INT.c ****     *  The following tasks are performed:
 329:Generated_Source\PSoC4/capsense_INT.c ****     *    1. Disable the CSD interrupt.
 330:Generated_Source\PSoC4/capsense_INT.c ****     *    2. Read the Counter register and update the data structure with raw data.
 331:Generated_Source\PSoC4/capsense_INT.c ****     *    3. Connect the Vref buffer to the AMUX bus.
 332:Generated_Source\PSoC4/capsense_INT.c ****     *    4. Disable the CSD block (after the widget has been scanned).
 333:Generated_Source\PSoC4/capsense_INT.c ****     *    5. Update the Scan Counter.
 334:Generated_Source\PSoC4/capsense_INT.c ****     *    6. Reset the BUSY flag.
 335:Generated_Source\PSoC4/capsense_INT.c ****     *    7. Enable the CSD interrupt.
 336:Generated_Source\PSoC4/capsense_INT.c ****     *
 337:Generated_Source\PSoC4/capsense_INT.c ****     *  The ISR handler initializes scanning for the previous sensor when the
 338:Generated_Source\PSoC4/capsense_INT.c ****     *  widget has more than one sensor.
 339:Generated_Source\PSoC4/capsense_INT.c ****     *  The ISR handler initializes scanning for the next widget when the
 340:Generated_Source\PSoC4/capsense_INT.c ****     *  capsense_ScanAllWidgets() APIs are called and the project has
 341:Generated_Source\PSoC4/capsense_INT.c ****     *  more than one widget.
 342:Generated_Source\PSoC4/capsense_INT.c ****     *  The ISR handler changes the IMO and initializes scanning for the next
 343:Generated_Source\PSoC4/capsense_INT.c ****     *  frequency channels when multi-frequency scanning is enabled.
 344:Generated_Source\PSoC4/capsense_INT.c ****     *
 345:Generated_Source\PSoC4/capsense_INT.c ****     *  This function has two Macro Callbacks that allow calling the user
 346:Generated_Source\PSoC4/capsense_INT.c ****     *  code from macros specified in Component's generated code. Refer to the
 347:Generated_Source\PSoC4/capsense_INT.c ****     *  \ref group_c_macrocallbacks section of the PSoC Creator User Guide
 348:Generated_Source\PSoC4/capsense_INT.c ****     *  for details.
 349:Generated_Source\PSoC4/capsense_INT.c ****     *
 350:Generated_Source\PSoC4/capsense_INT.c ****     *******************************************************************************/
 351:Generated_Source\PSoC4/capsense_INT.c ****     CY_ISR(capsense_CSDPostMultiScanGanged)
 352:Generated_Source\PSoC4/capsense_INT.c ****     {
 353:Generated_Source\PSoC4/capsense_INT.c ****         #ifdef capsense_ENTRY_CALLBACK
 354:Generated_Source\PSoC4/capsense_INT.c ****             capsense_EntryCallback();
 355:Generated_Source\PSoC4/capsense_INT.c ****         #endif /* capsense_ENTRY_CALLBACK */
 356:Generated_Source\PSoC4/capsense_INT.c **** 
 357:Generated_Source\PSoC4/capsense_INT.c ****         /* Clear pending interrupt */
 358:Generated_Source\PSoC4/capsense_INT.c ****         CY_SET_REG32(capsense_INTR_PTR, capsense_INTR_SET_MASK);
 359:Generated_Source\PSoC4/capsense_INT.c **** 
 360:Generated_Source\PSoC4/capsense_INT.c ****         #if (capsense_ENABLE == capsense_CSD_NOISE_METRIC_EN)
 361:Generated_Source\PSoC4/capsense_INT.c ****             if ((capsense_CSD_NOISE_METRIC_TH < ((CY_GET_REG32(capsense_RESULT_VAL1_PTR) &
 362:Generated_Source\PSoC4/capsense_INT.c ****                                                       capsense_RESULT_VAL1_BAD_CONVS_MASK) >>
 363:Generated_Source\PSoC4/capsense_INT.c ****                                                       capsense_RESULT_VAL1_BAD_CONVS_SHIFT)) &&
 364:Generated_Source\PSoC4/capsense_INT.c ****                                                       (0u < capsense_badConversionsNum))
 365:Generated_Source\PSoC4/capsense_INT.c ****             {
 366:Generated_Source\PSoC4/capsense_INT.c ****                 /* Decrement bad conversions number */
 367:Generated_Source\PSoC4/capsense_INT.c ****                 capsense_badConversionsNum--;
 368:Generated_Source\PSoC4/capsense_INT.c **** 
 369:Generated_Source\PSoC4/capsense_INT.c ****                 /* Start the re-scan */
 370:Generated_Source\PSoC4/capsense_INT.c ****                 CY_SET_REG32(capsense_SEQ_START_PTR, capsense_SEQ_START_AZ0_SKIP_MASK |
 371:Generated_Source\PSoC4/capsense_INT.c ****                                                              capsense_SEQ_START_AZ1_SKIP_MASK |
 372:Generated_Source\PSoC4/capsense_INT.c ****                                                              capsense_SEQ_START_START_MASK);
 373:Generated_Source\PSoC4/capsense_INT.c ****             }
ARM GAS  C:\Users\Usuario\AppData\Local\Temp\ccFtlcAy.s 			page 8


 374:Generated_Source\PSoC4/capsense_INT.c ****             else
 375:Generated_Source\PSoC4/capsense_INT.c ****             {
 376:Generated_Source\PSoC4/capsense_INT.c ****         #endif /* (capsense_ENABLE == capsense_CSD_NOISE_METRIC_EN) */
 377:Generated_Source\PSoC4/capsense_INT.c **** 
 378:Generated_Source\PSoC4/capsense_INT.c ****             capsense_SsCSDPostScan();
 379:Generated_Source\PSoC4/capsense_INT.c **** 
 380:Generated_Source\PSoC4/capsense_INT.c ****             #if (capsense_ENABLE == capsense_MULTI_FREQ_SCAN_EN)
 381:Generated_Source\PSoC4/capsense_INT.c ****                 if (capsense_FREQ_CHANNEL_2 == capsense_scanFreqIndex)
 382:Generated_Source\PSoC4/capsense_INT.c ****             #endif /* (capsense_ENABLE == capsense_MULTI_FREQ_SCAN_EN) */
 383:Generated_Source\PSoC4/capsense_INT.c ****             {
 384:Generated_Source\PSoC4/capsense_INT.c ****                 capsense_SsCSDDisconnectSnsExt((uint32)capsense_widgetIndex, (uint32)capsense_senso
 385:Generated_Source\PSoC4/capsense_INT.c ****             }
 386:Generated_Source\PSoC4/capsense_INT.c **** 
 387:Generated_Source\PSoC4/capsense_INT.c ****             #if (capsense_ENABLE == capsense_MULTI_FREQ_SCAN_EN)
 388:Generated_Source\PSoC4/capsense_INT.c ****                 if (capsense_FREQ_CHANNEL_2 > capsense_scanFreqIndex)
 389:Generated_Source\PSoC4/capsense_INT.c ****                 {
 390:Generated_Source\PSoC4/capsense_INT.c ****                      /* Scan the next channel */
 391:Generated_Source\PSoC4/capsense_INT.c ****                     capsense_SsNextFrequencyScan();
 392:Generated_Source\PSoC4/capsense_INT.c ****                 }
 393:Generated_Source\PSoC4/capsense_INT.c ****                 else
 394:Generated_Source\PSoC4/capsense_INT.c ****                 {
 395:Generated_Source\PSoC4/capsense_INT.c ****                     /* All channels are scanned. Set IMO to zero channel */
 396:Generated_Source\PSoC4/capsense_INT.c ****                     capsense_scanFreqIndex = capsense_FREQ_CHANNEL_0;
 397:Generated_Source\PSoC4/capsense_INT.c **** 
 398:Generated_Source\PSoC4/capsense_INT.c ****                     #if (capsense_MFS_IMO == capsense_MFS_METHOD)
 399:Generated_Source\PSoC4/capsense_INT.c ****                         capsense_SsChangeImoFreq(capsense_FREQ_CHANNEL_0);
 400:Generated_Source\PSoC4/capsense_INT.c ****                     #else
 401:Generated_Source\PSoC4/capsense_INT.c ****                         capsense_SsChangeClkFreq(capsense_FREQ_CHANNEL_0);
 402:Generated_Source\PSoC4/capsense_INT.c ****                     #endif /* (capsense_MFS_IMO == capsense_MFS_METHOD) */
 403:Generated_Source\PSoC4/capsense_INT.c **** 
 404:Generated_Source\PSoC4/capsense_INT.c ****                      /* Scan the next sensor */
 405:Generated_Source\PSoC4/capsense_INT.c ****                     capsense_SsCSDInitNextScan();
 406:Generated_Source\PSoC4/capsense_INT.c ****                 }
 407:Generated_Source\PSoC4/capsense_INT.c ****             #else
 408:Generated_Source\PSoC4/capsense_INT.c ****                  /* Scan the next sensor */
 409:Generated_Source\PSoC4/capsense_INT.c ****                 capsense_SsCSDInitNextScan();
 410:Generated_Source\PSoC4/capsense_INT.c ****             #endif /* (capsense_ENABLE == capsense_MULTI_FREQ_SCAN_EN) */
 411:Generated_Source\PSoC4/capsense_INT.c ****         #if (capsense_ENABLE == capsense_CSD_NOISE_METRIC_EN)
 412:Generated_Source\PSoC4/capsense_INT.c ****             }
 413:Generated_Source\PSoC4/capsense_INT.c ****         #endif /* (capsense_ENABLE == capsense_CSD_NOISE_METRIC_EN) */
 414:Generated_Source\PSoC4/capsense_INT.c **** 
 415:Generated_Source\PSoC4/capsense_INT.c ****         #ifdef capsense_EXIT_CALLBACK
 416:Generated_Source\PSoC4/capsense_INT.c ****             capsense_ExitCallback();
 417:Generated_Source\PSoC4/capsense_INT.c ****         #endif /* capsense_EXIT_CALLBACK */
 418:Generated_Source\PSoC4/capsense_INT.c ****     }
 419:Generated_Source\PSoC4/capsense_INT.c ****     #endif /* (capsense_ENABLE == capsense_CSD_GANGED_SNS_EN) */
 420:Generated_Source\PSoC4/capsense_INT.c **** 
 421:Generated_Source\PSoC4/capsense_INT.c **** #else
 422:Generated_Source\PSoC4/capsense_INT.c **** 
 423:Generated_Source\PSoC4/capsense_INT.c ****     /* Third-generation HW block part */
 424:Generated_Source\PSoC4/capsense_INT.c **** 
 425:Generated_Source\PSoC4/capsense_INT.c ****     /*******************************************************************************
 426:Generated_Source\PSoC4/capsense_INT.c ****     * Function Name: capsense_CSDPostSingleScan
 427:Generated_Source\PSoC4/capsense_INT.c ****     ****************************************************************************//**
 428:Generated_Source\PSoC4/capsense_INT.c ****     *
 429:Generated_Source\PSoC4/capsense_INT.c ****     * \brief
 430:Generated_Source\PSoC4/capsense_INT.c ****     *  This is an internal ISR function for the single-sensor scanning implementation.
ARM GAS  C:\Users\Usuario\AppData\Local\Temp\ccFtlcAy.s 			page 9


 431:Generated_Source\PSoC4/capsense_INT.c ****     *
 432:Generated_Source\PSoC4/capsense_INT.c ****     * \details
 433:Generated_Source\PSoC4/capsense_INT.c ****     *  This ISR handler is triggered when the user calls the
 434:Generated_Source\PSoC4/capsense_INT.c ****     *  capsense_CSDScanExt() function.
 435:Generated_Source\PSoC4/capsense_INT.c ****     *
 436:Generated_Source\PSoC4/capsense_INT.c ****     *  The following tasks are performed for Third-generation HW block:
 437:Generated_Source\PSoC4/capsense_INT.c ****     *    1. Disable the CSD interrupt.
 438:Generated_Source\PSoC4/capsense_INT.c ****     *    2. Read the Counter register and update the data structure with raw data.
 439:Generated_Source\PSoC4/capsense_INT.c ****     *    3. Connect the Vref buffer to the AMUX bus.
 440:Generated_Source\PSoC4/capsense_INT.c ****     *    4. Update the Scan Counter.
 441:Generated_Source\PSoC4/capsense_INT.c ****     *    5. Reset the BUSY flag.
 442:Generated_Source\PSoC4/capsense_INT.c ****     *    6. Enable the CSD interrupt.
 443:Generated_Source\PSoC4/capsense_INT.c ****     *
 444:Generated_Source\PSoC4/capsense_INT.c ****     *  The following tasks are performed for Fourth-generation HW block:
 445:Generated_Source\PSoC4/capsense_INT.c ****     *    1. Check if the raw data is not noisy.
 446:Generated_Source\PSoC4/capsense_INT.c ****     *    2. Read the Counter register and update the data structure with raw data.
 447:Generated_Source\PSoC4/capsense_INT.c ****     *    3. Configure and start the scan for the next frequency if the
 448:Generated_Source\PSoC4/capsense_INT.c ****     *      multi-frequency is enabled.
 449:Generated_Source\PSoC4/capsense_INT.c ****     *    4. Update the Scan Counter.
 450:Generated_Source\PSoC4/capsense_INT.c ****     *    5. Reset the BUSY flag.
 451:Generated_Source\PSoC4/capsense_INT.c ****     *    6. Enable the CSD interrupt.
 452:Generated_Source\PSoC4/capsense_INT.c ****     *
 453:Generated_Source\PSoC4/capsense_INT.c ****     *  The ISR handler changes the IMO and initializes scanning for the next frequency
 454:Generated_Source\PSoC4/capsense_INT.c ****     *  channels when multi-frequency scanning is enabled.
 455:Generated_Source\PSoC4/capsense_INT.c ****     *
 456:Generated_Source\PSoC4/capsense_INT.c ****     *  This function has two Macro Callbacks that allow calling the user code
 457:Generated_Source\PSoC4/capsense_INT.c ****     *  from macros specified in Component's generated code. Refer to the
 458:Generated_Source\PSoC4/capsense_INT.c ****     *  \ref group_c_macrocallbacks section of the PSoC Creator User Guide
 459:Generated_Source\PSoC4/capsense_INT.c ****     *  for details.
 460:Generated_Source\PSoC4/capsense_INT.c ****     *
 461:Generated_Source\PSoC4/capsense_INT.c ****     *******************************************************************************/
 462:Generated_Source\PSoC4/capsense_INT.c ****     CY_ISR(capsense_CSDPostSingleScan)
 463:Generated_Source\PSoC4/capsense_INT.c ****     {
 464:Generated_Source\PSoC4/capsense_INT.c ****         #ifdef capsense_ENTRY_CALLBACK
 465:Generated_Source\PSoC4/capsense_INT.c ****             capsense_EntryCallback();
 466:Generated_Source\PSoC4/capsense_INT.c ****         #endif /* capsense_ENTRY_CALLBACK */
 467:Generated_Source\PSoC4/capsense_INT.c **** 
 468:Generated_Source\PSoC4/capsense_INT.c ****         /* Clear pending interrupt */
 469:Generated_Source\PSoC4/capsense_INT.c ****         CY_SET_REG32(capsense_INTR_PTR, capsense_INTR_SET_MASK);
 470:Generated_Source\PSoC4/capsense_INT.c **** 
 471:Generated_Source\PSoC4/capsense_INT.c ****         /* Read Rawdata */
 472:Generated_Source\PSoC4/capsense_INT.c ****         capsense_SsCSDPostScan();
 473:Generated_Source\PSoC4/capsense_INT.c **** 
 474:Generated_Source\PSoC4/capsense_INT.c ****         #if (capsense_ENABLE == capsense_MULTI_FREQ_SCAN_EN)
 475:Generated_Source\PSoC4/capsense_INT.c ****             if (capsense_FREQ_CHANNEL_2 > capsense_scanFreqIndex)
 476:Generated_Source\PSoC4/capsense_INT.c ****             {
 477:Generated_Source\PSoC4/capsense_INT.c ****                 /* Connect Vref Buffer to AMUX bus. Third-generation HW block is enabled */
 478:Generated_Source\PSoC4/capsense_INT.c ****                 CY_SET_REG32(capsense_CONFIG_PTR, capsense_configCsd | capsense_CTANK_PRECHARGE_CON
 479:Generated_Source\PSoC4/capsense_INT.c **** 
 480:Generated_Source\PSoC4/capsense_INT.c ****                 capsense_SsNextFrequencyScan();
 481:Generated_Source\PSoC4/capsense_INT.c ****             }
 482:Generated_Source\PSoC4/capsense_INT.c ****             else
 483:Generated_Source\PSoC4/capsense_INT.c ****             {
 484:Generated_Source\PSoC4/capsense_INT.c ****                 capsense_scanFreqIndex = capsense_FREQ_CHANNEL_0;
 485:Generated_Source\PSoC4/capsense_INT.c **** 
 486:Generated_Source\PSoC4/capsense_INT.c ****                 #if (capsense_MFS_IMO == capsense_MFS_METHOD)
 487:Generated_Source\PSoC4/capsense_INT.c ****                     capsense_SsChangeImoFreq(capsense_FREQ_CHANNEL_0);
ARM GAS  C:\Users\Usuario\AppData\Local\Temp\ccFtlcAy.s 			page 10


 488:Generated_Source\PSoC4/capsense_INT.c ****                 #else
 489:Generated_Source\PSoC4/capsense_INT.c ****                     capsense_SsChangeClkFreq(capsense_FREQ_CHANNEL_0);
 490:Generated_Source\PSoC4/capsense_INT.c ****                 #endif /* (capsense_MFS_IMO == capsense_MFS_METHOD) */
 491:Generated_Source\PSoC4/capsense_INT.c **** 
 492:Generated_Source\PSoC4/capsense_INT.c ****                 #if (capsense_ENABLE == capsense_BLOCK_OFF_AFTER_SCAN_EN)
 493:Generated_Source\PSoC4/capsense_INT.c ****                     /* Disable Third-generation HW block. Connect Vref Buffer to AMUX bus */
 494:Generated_Source\PSoC4/capsense_INT.c ****                     #if ((capsense_CSH_PRECHARGE_IO_BUF == capsense_CSD_CSH_PRECHARGE_SRC) &&\
 495:Generated_Source\PSoC4/capsense_INT.c ****                          (capsense_ENABLE == capsense_CSD_SHIELD_TANK_EN))
 496:Generated_Source\PSoC4/capsense_INT.c ****                         CY_SET_REG32(capsense_CONFIG_PTR, capsense_configCsd | capsense_CMOD_PRECHA
 497:Generated_Source\PSoC4/capsense_INT.c ****                     #else
 498:Generated_Source\PSoC4/capsense_INT.c ****                         CY_SET_REG32(capsense_CONFIG_PTR, capsense_configCsd | capsense_CTANK_PRECH
 499:Generated_Source\PSoC4/capsense_INT.c ****                     #endif
 500:Generated_Source\PSoC4/capsense_INT.c ****                 #else
 501:Generated_Source\PSoC4/capsense_INT.c ****                     /* Connect Vref Buffer to AMUX bus. Third-generation HW block is enabled */
 502:Generated_Source\PSoC4/capsense_INT.c ****                     CY_SET_REG32(capsense_CONFIG_PTR, capsense_configCsd | capsense_CTANK_PRECHARGE
 503:Generated_Source\PSoC4/capsense_INT.c ****                 #endif
 504:Generated_Source\PSoC4/capsense_INT.c **** 
 505:Generated_Source\PSoC4/capsense_INT.c ****                 /* Update Scan Counter */
 506:Generated_Source\PSoC4/capsense_INT.c ****                 capsense_dsRam.scanCounter++;
 507:Generated_Source\PSoC4/capsense_INT.c **** 
 508:Generated_Source\PSoC4/capsense_INT.c ****                 /* Sensor is totally scanned. Reset BUSY flag */
 509:Generated_Source\PSoC4/capsense_INT.c ****                 capsense_dsRam.status &= ~(capsense_SW_STS_BUSY | capsense_WDGT_SW_STS_BUSY);
 510:Generated_Source\PSoC4/capsense_INT.c ****             }
 511:Generated_Source\PSoC4/capsense_INT.c ****         #else
 512:Generated_Source\PSoC4/capsense_INT.c ****             {
 513:Generated_Source\PSoC4/capsense_INT.c ****                 #if (capsense_ENABLE == capsense_BLOCK_OFF_AFTER_SCAN_EN)
 514:Generated_Source\PSoC4/capsense_INT.c ****                     /* Disable Third-generation HW block. Connect Vref Buffer to AMUX bus */
 515:Generated_Source\PSoC4/capsense_INT.c ****                     #if ((capsense_CSH_PRECHARGE_IO_BUF == capsense_CSD_CSH_PRECHARGE_SRC) &&\
 516:Generated_Source\PSoC4/capsense_INT.c ****                          (capsense_ENABLE == capsense_CSD_SHIELD_TANK_EN))
 517:Generated_Source\PSoC4/capsense_INT.c ****                         CY_SET_REG32(capsense_CONFIG_PTR, capsense_configCsd | capsense_CMOD_PRECHA
 518:Generated_Source\PSoC4/capsense_INT.c ****                     #else
 519:Generated_Source\PSoC4/capsense_INT.c ****                         CY_SET_REG32(capsense_CONFIG_PTR, capsense_configCsd | capsense_CTANK_PRECH
 520:Generated_Source\PSoC4/capsense_INT.c ****                     #endif
 521:Generated_Source\PSoC4/capsense_INT.c ****                 #else
 522:Generated_Source\PSoC4/capsense_INT.c ****                     /* Connect Vref Buffer to AMUX bus. Third-generation HW block is enabled */
 523:Generated_Source\PSoC4/capsense_INT.c ****                     CY_SET_REG32(capsense_CONFIG_PTR, capsense_configCsd | capsense_CTANK_PRECHARGE
 524:Generated_Source\PSoC4/capsense_INT.c ****                 #endif
 525:Generated_Source\PSoC4/capsense_INT.c **** 
 526:Generated_Source\PSoC4/capsense_INT.c ****                 /* Update Scan Counter */
 527:Generated_Source\PSoC4/capsense_INT.c ****                 capsense_dsRam.scanCounter++;
 528:Generated_Source\PSoC4/capsense_INT.c **** 
 529:Generated_Source\PSoC4/capsense_INT.c ****                 /* Sensor is totally scanned. Reset BUSY flag */
 530:Generated_Source\PSoC4/capsense_INT.c ****                 capsense_dsRam.status &= ~(capsense_SW_STS_BUSY | capsense_WDGT_SW_STS_BUSY);
 531:Generated_Source\PSoC4/capsense_INT.c ****             }
 532:Generated_Source\PSoC4/capsense_INT.c ****         #endif /* (capsense_ENABLE == capsense_MULTI_FREQ_SCAN_EN) */
 533:Generated_Source\PSoC4/capsense_INT.c **** 
 534:Generated_Source\PSoC4/capsense_INT.c ****         #ifdef capsense_EXIT_CALLBACK
 535:Generated_Source\PSoC4/capsense_INT.c ****             capsense_ExitCallback();
 536:Generated_Source\PSoC4/capsense_INT.c ****         #endif /* capsense_EXIT_CALLBACK */
 537:Generated_Source\PSoC4/capsense_INT.c ****     }
 538:Generated_Source\PSoC4/capsense_INT.c **** 
 539:Generated_Source\PSoC4/capsense_INT.c **** 
 540:Generated_Source\PSoC4/capsense_INT.c ****     /*******************************************************************************
 541:Generated_Source\PSoC4/capsense_INT.c ****     * Function Name: capsense_CSDPostMultiScan
 542:Generated_Source\PSoC4/capsense_INT.c ****     ****************************************************************************//**
 543:Generated_Source\PSoC4/capsense_INT.c ****     *
 544:Generated_Source\PSoC4/capsense_INT.c ****     * \brief
ARM GAS  C:\Users\Usuario\AppData\Local\Temp\ccFtlcAy.s 			page 11


 545:Generated_Source\PSoC4/capsense_INT.c ****     *  This is an internal ISR function for the multiple-sensor scanning
 546:Generated_Source\PSoC4/capsense_INT.c ****     *  implementation.
 547:Generated_Source\PSoC4/capsense_INT.c ****     *
 548:Generated_Source\PSoC4/capsense_INT.c ****     * \details
 549:Generated_Source\PSoC4/capsense_INT.c ****     *  This ISR handler is triggered when the user calls the
 550:Generated_Source\PSoC4/capsense_INT.c ****     *  capsense_Scan() or capsense_ScanAllWidgets() APIs.
 551:Generated_Source\PSoC4/capsense_INT.c ****     *
 552:Generated_Source\PSoC4/capsense_INT.c ****     *  The following tasks are performed:
 553:Generated_Source\PSoC4/capsense_INT.c ****     *    1. Disable the CSD interrupt.
 554:Generated_Source\PSoC4/capsense_INT.c ****     *    2. Read the Counter register and update the data structure with raw data.
 555:Generated_Source\PSoC4/capsense_INT.c ****     *    3. Connect the Vref buffer to the AMUX bus.
 556:Generated_Source\PSoC4/capsense_INT.c ****     *    4. Disable the CSD block (after the widget has been scanned).
 557:Generated_Source\PSoC4/capsense_INT.c ****     *    5. Update the Scan Counter.
 558:Generated_Source\PSoC4/capsense_INT.c ****     *    6. Reset the BUSY flag.
 559:Generated_Source\PSoC4/capsense_INT.c ****     *    7. Enable the CSD interrupt.
 560:Generated_Source\PSoC4/capsense_INT.c ****     *
 561:Generated_Source\PSoC4/capsense_INT.c ****     *  The ISR handler initializes scanning for the previous sensor when the
 562:Generated_Source\PSoC4/capsense_INT.c ****     *  widget has more than one sensor.
 563:Generated_Source\PSoC4/capsense_INT.c ****     *  The ISR handler initializes scanning for the next widget when the
 564:Generated_Source\PSoC4/capsense_INT.c ****     *  capsense_ScanAllWidgets() APIs are called and the project has
 565:Generated_Source\PSoC4/capsense_INT.c ****     *  more than one widget.
 566:Generated_Source\PSoC4/capsense_INT.c ****     *  The ISR handler changes the IMO and initializes scanning for the next
 567:Generated_Source\PSoC4/capsense_INT.c ****     *  frequency channels when multi-frequency scanning is enabled.
 568:Generated_Source\PSoC4/capsense_INT.c ****     *
 569:Generated_Source\PSoC4/capsense_INT.c ****     *  This function has two Macro Callbacks that allow calling the user
 570:Generated_Source\PSoC4/capsense_INT.c ****     *  code from macros specified in Component's generated code. Refer to the
 571:Generated_Source\PSoC4/capsense_INT.c ****     *  \ref group_c_macrocallbacks section of the PSoC Creator User Guide
 572:Generated_Source\PSoC4/capsense_INT.c ****     *  for details.
 573:Generated_Source\PSoC4/capsense_INT.c ****     *
 574:Generated_Source\PSoC4/capsense_INT.c ****     *******************************************************************************/
 575:Generated_Source\PSoC4/capsense_INT.c ****     CY_ISR(capsense_CSDPostMultiScan)
 576:Generated_Source\PSoC4/capsense_INT.c ****     {
 577:Generated_Source\PSoC4/capsense_INT.c ****         /* Declare and initialize ptr to sensor IO structure to appropriate address        */
 578:Generated_Source\PSoC4/capsense_INT.c ****         capsense_FLASH_IO_STRUCT const *curSnsIOPtr = (capsense_FLASH_IO_STRUCT const *)
 579:Generated_Source\PSoC4/capsense_INT.c ****                                                           capsense_dsFlash.wdgtArray[capsense_widge
 580:Generated_Source\PSoC4/capsense_INT.c ****                                                           + capsense_sensorIndex;
 581:Generated_Source\PSoC4/capsense_INT.c **** 
 582:Generated_Source\PSoC4/capsense_INT.c ****         #ifdef capsense_ENTRY_CALLBACK
 583:Generated_Source\PSoC4/capsense_INT.c ****             capsense_EntryCallback();
 584:Generated_Source\PSoC4/capsense_INT.c ****         #endif /* capsense_ENTRY_CALLBACK */
 585:Generated_Source\PSoC4/capsense_INT.c **** 
 586:Generated_Source\PSoC4/capsense_INT.c ****         /* Clear pending interrupt */
 587:Generated_Source\PSoC4/capsense_INT.c ****         CY_SET_REG32(capsense_INTR_PTR, capsense_INTR_SET_MASK);
 588:Generated_Source\PSoC4/capsense_INT.c **** 
 589:Generated_Source\PSoC4/capsense_INT.c ****          /* Read Rawdata */
 590:Generated_Source\PSoC4/capsense_INT.c ****         capsense_SsCSDPostScan();
 591:Generated_Source\PSoC4/capsense_INT.c **** 
 592:Generated_Source\PSoC4/capsense_INT.c ****         /* Connect Vref Buffer to AMUX bus */
 593:Generated_Source\PSoC4/capsense_INT.c ****         CY_SET_REG32(capsense_CONFIG_PTR, capsense_configCsd | capsense_CTANK_PRECHARGE_CONFIG_CSD_
 594:Generated_Source\PSoC4/capsense_INT.c **** 
 595:Generated_Source\PSoC4/capsense_INT.c ****         #if (capsense_ENABLE == capsense_MULTI_FREQ_SCAN_EN)
 596:Generated_Source\PSoC4/capsense_INT.c ****             /* Disable sensor when all frequency channels are scanned */
 597:Generated_Source\PSoC4/capsense_INT.c ****             if (capsense_FREQ_CHANNEL_2 == capsense_scanFreqIndex)
 598:Generated_Source\PSoC4/capsense_INT.c ****             {
 599:Generated_Source\PSoC4/capsense_INT.c ****                 /* Disable sensor */
 600:Generated_Source\PSoC4/capsense_INT.c ****                 capsense_CSDDisconnectSns(curSnsIOPtr);
 601:Generated_Source\PSoC4/capsense_INT.c ****             }
ARM GAS  C:\Users\Usuario\AppData\Local\Temp\ccFtlcAy.s 			page 12


 602:Generated_Source\PSoC4/capsense_INT.c ****         #else
 603:Generated_Source\PSoC4/capsense_INT.c ****             /* Disable sensor */
 604:Generated_Source\PSoC4/capsense_INT.c ****             capsense_CSDDisconnectSns(curSnsIOPtr);
 605:Generated_Source\PSoC4/capsense_INT.c ****         #endif /* (capsense_ENABLE == capsense_MULTI_FREQ_SCAN_EN) */
 606:Generated_Source\PSoC4/capsense_INT.c **** 
 607:Generated_Source\PSoC4/capsense_INT.c ****         #if (capsense_ENABLE == capsense_MULTI_FREQ_SCAN_EN)
 608:Generated_Source\PSoC4/capsense_INT.c ****             if (capsense_FREQ_CHANNEL_2 > capsense_scanFreqIndex)
 609:Generated_Source\PSoC4/capsense_INT.c ****             {
 610:Generated_Source\PSoC4/capsense_INT.c ****                  /* Scan the next channel */
 611:Generated_Source\PSoC4/capsense_INT.c ****                 capsense_SsNextFrequencyScan();
 612:Generated_Source\PSoC4/capsense_INT.c ****             }
 613:Generated_Source\PSoC4/capsense_INT.c ****             else
 614:Generated_Source\PSoC4/capsense_INT.c ****             {
 615:Generated_Source\PSoC4/capsense_INT.c ****                  /* All channels are scanned. Set IMO to zero channel */
 616:Generated_Source\PSoC4/capsense_INT.c ****                 capsense_scanFreqIndex = capsense_FREQ_CHANNEL_0;
 617:Generated_Source\PSoC4/capsense_INT.c **** 
 618:Generated_Source\PSoC4/capsense_INT.c ****                 #if (capsense_MFS_IMO == capsense_MFS_METHOD)
 619:Generated_Source\PSoC4/capsense_INT.c ****                     capsense_SsChangeImoFreq(capsense_FREQ_CHANNEL_0);
 620:Generated_Source\PSoC4/capsense_INT.c ****                 #else
 621:Generated_Source\PSoC4/capsense_INT.c ****                     capsense_SsChangeClkFreq(capsense_FREQ_CHANNEL_0);
 622:Generated_Source\PSoC4/capsense_INT.c ****                 #endif /* (capsense_MFS_IMO == capsense_MFS_METHOD) */
 623:Generated_Source\PSoC4/capsense_INT.c **** 
 624:Generated_Source\PSoC4/capsense_INT.c ****                  /* Scan the next sensor */
 625:Generated_Source\PSoC4/capsense_INT.c ****                 capsense_SsCSDInitNextScan();
 626:Generated_Source\PSoC4/capsense_INT.c ****             }
 627:Generated_Source\PSoC4/capsense_INT.c ****         #else
 628:Generated_Source\PSoC4/capsense_INT.c ****             /* Scan the next sensor */
 629:Generated_Source\PSoC4/capsense_INT.c ****             capsense_SsCSDInitNextScan();
 630:Generated_Source\PSoC4/capsense_INT.c ****         #endif /* (capsense_ENABLE == capsense_MULTI_FREQ_SCAN_EN) */
 631:Generated_Source\PSoC4/capsense_INT.c **** 
 632:Generated_Source\PSoC4/capsense_INT.c ****         #ifdef capsense_EXIT_CALLBACK
 633:Generated_Source\PSoC4/capsense_INT.c ****             capsense_ExitCallback();
 634:Generated_Source\PSoC4/capsense_INT.c ****         #endif /* capsense_EXIT_CALLBACK */
 635:Generated_Source\PSoC4/capsense_INT.c ****     }
 636:Generated_Source\PSoC4/capsense_INT.c **** 
 637:Generated_Source\PSoC4/capsense_INT.c **** 
 638:Generated_Source\PSoC4/capsense_INT.c ****     #if (capsense_ENABLE == capsense_CSD_GANGED_SNS_EN)
 639:Generated_Source\PSoC4/capsense_INT.c ****     /*******************************************************************************
 640:Generated_Source\PSoC4/capsense_INT.c ****     * Function Name: capsense_CSDPostMultiScanGanged
 641:Generated_Source\PSoC4/capsense_INT.c ****     ****************************************************************************//**
 642:Generated_Source\PSoC4/capsense_INT.c ****     *
 643:Generated_Source\PSoC4/capsense_INT.c ****     * \brief
 644:Generated_Source\PSoC4/capsense_INT.c ****     *  This is an internal ISR function for the multiple-sensor scanning
 645:Generated_Source\PSoC4/capsense_INT.c ****     *  implementation for ganged sensors.
 646:Generated_Source\PSoC4/capsense_INT.c ****     *
 647:Generated_Source\PSoC4/capsense_INT.c ****     * \details
 648:Generated_Source\PSoC4/capsense_INT.c ****     *  This ISR handler is triggered when the user calls the
 649:Generated_Source\PSoC4/capsense_INT.c ****     *  capsense_Scan() API for a ganged sensor or the
 650:Generated_Source\PSoC4/capsense_INT.c ****     *  capsense_ScanAllWidgets() API in the project with ganged sensors.
 651:Generated_Source\PSoC4/capsense_INT.c ****     *
 652:Generated_Source\PSoC4/capsense_INT.c ****     *  The following tasks are performed:
 653:Generated_Source\PSoC4/capsense_INT.c ****     *    1. Disable the CSD interrupt.
 654:Generated_Source\PSoC4/capsense_INT.c ****     *    2. Read the Counter register and update the data structure with raw data.
 655:Generated_Source\PSoC4/capsense_INT.c ****     *    3. Connect the Vref buffer to the AMUX bus.
 656:Generated_Source\PSoC4/capsense_INT.c ****     *    4. Disable the CSD block (after the widget has been scanned).
 657:Generated_Source\PSoC4/capsense_INT.c ****     *    5. Update the Scan Counter.
 658:Generated_Source\PSoC4/capsense_INT.c ****     *    6. Reset the BUSY flag.
ARM GAS  C:\Users\Usuario\AppData\Local\Temp\ccFtlcAy.s 			page 13


 659:Generated_Source\PSoC4/capsense_INT.c ****     *    7. Enable the CSD interrupt.
 660:Generated_Source\PSoC4/capsense_INT.c ****     *
 661:Generated_Source\PSoC4/capsense_INT.c ****     *  The ISR handler initializes scanning for the previous sensor when the
 662:Generated_Source\PSoC4/capsense_INT.c ****     *  widget has more than one sensor.
 663:Generated_Source\PSoC4/capsense_INT.c ****     *  The ISR handler initializes scanning for the next widget when the
 664:Generated_Source\PSoC4/capsense_INT.c ****     *  capsense_ScanAllWidgets() APIs are called and the project has
 665:Generated_Source\PSoC4/capsense_INT.c ****     *  more than one widget.
 666:Generated_Source\PSoC4/capsense_INT.c ****     *  The ISR handler changes the IMO and initializes scanning for the next
 667:Generated_Source\PSoC4/capsense_INT.c ****     *  frequency channels when multi-frequency scanning is enabled.
 668:Generated_Source\PSoC4/capsense_INT.c ****     *
 669:Generated_Source\PSoC4/capsense_INT.c ****     *  This function has two Macro Callbacks that allow calling the user
 670:Generated_Source\PSoC4/capsense_INT.c ****     *  code from macros specified in Component's generated code. Refer to the
 671:Generated_Source\PSoC4/capsense_INT.c ****     *  \ref group_c_macrocallbacks section of the PSoC Creator User Guide
 672:Generated_Source\PSoC4/capsense_INT.c ****     *  for details.
 673:Generated_Source\PSoC4/capsense_INT.c ****     *
 674:Generated_Source\PSoC4/capsense_INT.c ****     *******************************************************************************/
 675:Generated_Source\PSoC4/capsense_INT.c ****     CY_ISR(capsense_CSDPostMultiScanGanged)
 676:Generated_Source\PSoC4/capsense_INT.c ****     {
 677:Generated_Source\PSoC4/capsense_INT.c ****         #ifdef capsense_ENTRY_CALLBACK
 678:Generated_Source\PSoC4/capsense_INT.c ****             capsense_EntryCallback();
 679:Generated_Source\PSoC4/capsense_INT.c ****         #endif /* capsense_ENTRY_CALLBACK */
 680:Generated_Source\PSoC4/capsense_INT.c **** 
 681:Generated_Source\PSoC4/capsense_INT.c ****         /* Clear pending interrupt */
 682:Generated_Source\PSoC4/capsense_INT.c ****         CY_SET_REG32(capsense_INTR_PTR, capsense_INTR_SET_MASK);
 683:Generated_Source\PSoC4/capsense_INT.c **** 
 684:Generated_Source\PSoC4/capsense_INT.c ****          /* Read Rawdata */
 685:Generated_Source\PSoC4/capsense_INT.c ****         capsense_SsCSDPostScan();
 686:Generated_Source\PSoC4/capsense_INT.c **** 
 687:Generated_Source\PSoC4/capsense_INT.c ****         /* Connect Vref Buffer to AMUX bus */
 688:Generated_Source\PSoC4/capsense_INT.c ****         CY_SET_REG32(capsense_CONFIG_PTR, capsense_configCsd | capsense_CTANK_PRECHARGE_CONFIG_CSD_
 689:Generated_Source\PSoC4/capsense_INT.c **** 
 690:Generated_Source\PSoC4/capsense_INT.c ****         #if (capsense_ENABLE == capsense_MULTI_FREQ_SCAN_EN)
 691:Generated_Source\PSoC4/capsense_INT.c ****             if (capsense_FREQ_CHANNEL_2 == capsense_scanFreqIndex)
 692:Generated_Source\PSoC4/capsense_INT.c ****             {
 693:Generated_Source\PSoC4/capsense_INT.c ****                 capsense_SsCSDDisconnectSnsExt((uint32)capsense_widgetIndex, (uint32)capsense_senso
 694:Generated_Source\PSoC4/capsense_INT.c ****             }
 695:Generated_Source\PSoC4/capsense_INT.c ****         #else
 696:Generated_Source\PSoC4/capsense_INT.c ****             capsense_SsCSDDisconnectSnsExt((uint32)capsense_widgetIndex, (uint32)capsense_sensorInd
 697:Generated_Source\PSoC4/capsense_INT.c ****         #endif /* (capsense_ENABLE == capsense_MULTI_FREQ_SCAN_EN) */
 698:Generated_Source\PSoC4/capsense_INT.c **** 
 699:Generated_Source\PSoC4/capsense_INT.c ****         #if (capsense_ENABLE == capsense_MULTI_FREQ_SCAN_EN)
 700:Generated_Source\PSoC4/capsense_INT.c ****             if (capsense_FREQ_CHANNEL_2 > capsense_scanFreqIndex)
 701:Generated_Source\PSoC4/capsense_INT.c ****             {
 702:Generated_Source\PSoC4/capsense_INT.c ****                  /* Scan the next channel */
 703:Generated_Source\PSoC4/capsense_INT.c ****                 capsense_SsNextFrequencyScan();
 704:Generated_Source\PSoC4/capsense_INT.c ****             }
 705:Generated_Source\PSoC4/capsense_INT.c ****             else
 706:Generated_Source\PSoC4/capsense_INT.c ****             {
 707:Generated_Source\PSoC4/capsense_INT.c ****                 /* All channels are scanned. Set IMO to zero channel */
 708:Generated_Source\PSoC4/capsense_INT.c ****                 capsense_scanFreqIndex = capsense_FREQ_CHANNEL_0;
 709:Generated_Source\PSoC4/capsense_INT.c **** 
 710:Generated_Source\PSoC4/capsense_INT.c ****                 #if (capsense_MFS_IMO == capsense_MFS_METHOD)
 711:Generated_Source\PSoC4/capsense_INT.c ****                     capsense_SsChangeImoFreq(capsense_FREQ_CHANNEL_0);
 712:Generated_Source\PSoC4/capsense_INT.c ****                 #else
 713:Generated_Source\PSoC4/capsense_INT.c ****                     capsense_SsChangeClkFreq(capsense_FREQ_CHANNEL_0);
 714:Generated_Source\PSoC4/capsense_INT.c ****                 #endif /* (capsense_MFS_IMO == capsense_MFS_METHOD) */
 715:Generated_Source\PSoC4/capsense_INT.c **** 
ARM GAS  C:\Users\Usuario\AppData\Local\Temp\ccFtlcAy.s 			page 14


 716:Generated_Source\PSoC4/capsense_INT.c ****                  /* Scan the next sensor */
 717:Generated_Source\PSoC4/capsense_INT.c ****                 capsense_SsCSDInitNextScan();
 718:Generated_Source\PSoC4/capsense_INT.c ****             }
 719:Generated_Source\PSoC4/capsense_INT.c ****         #else
 720:Generated_Source\PSoC4/capsense_INT.c ****              /* Scan the next sensor */
 721:Generated_Source\PSoC4/capsense_INT.c ****             capsense_SsCSDInitNextScan();
 722:Generated_Source\PSoC4/capsense_INT.c ****         #endif /* (capsense_ENABLE == capsense_MULTI_FREQ_SCAN_EN) */
 723:Generated_Source\PSoC4/capsense_INT.c **** 
 724:Generated_Source\PSoC4/capsense_INT.c ****         #ifdef capsense_EXIT_CALLBACK
 725:Generated_Source\PSoC4/capsense_INT.c ****             capsense_ExitCallback();
 726:Generated_Source\PSoC4/capsense_INT.c ****         #endif /* capsense_EXIT_CALLBACK */
 727:Generated_Source\PSoC4/capsense_INT.c ****     }
 728:Generated_Source\PSoC4/capsense_INT.c ****     #endif /* (capsense_ENABLE == capsense_CSD_GANGED_SNS_EN) */
 729:Generated_Source\PSoC4/capsense_INT.c **** 
 730:Generated_Source\PSoC4/capsense_INT.c **** #endif /* (capsense_ENABLE == capsense_CSDV2) */
 731:Generated_Source\PSoC4/capsense_INT.c **** 
 732:Generated_Source\PSoC4/capsense_INT.c **** #endif /* ((capsense_ENABLE == capsense_CSD_EN) || (capsense_ENABLE == capsense_CSD_CSX_EN)) */
 733:Generated_Source\PSoC4/capsense_INT.c **** 
 734:Generated_Source\PSoC4/capsense_INT.c **** /** \}
 735:Generated_Source\PSoC4/capsense_INT.c ****  * \endcond */
 736:Generated_Source\PSoC4/capsense_INT.c **** 
 737:Generated_Source\PSoC4/capsense_INT.c **** 
 738:Generated_Source\PSoC4/capsense_INT.c **** #if ((capsense_ENABLE == capsense_CSD_EN) || (capsense_ENABLE == capsense_CSD_CSX_EN))
 739:Generated_Source\PSoC4/capsense_INT.c **** 
 740:Generated_Source\PSoC4/capsense_INT.c **** /*******************************************************************************
 741:Generated_Source\PSoC4/capsense_INT.c **** * Function Name: capsense_SsCSDPostScan
 742:Generated_Source\PSoC4/capsense_INT.c **** ****************************************************************************//**
 743:Generated_Source\PSoC4/capsense_INT.c **** *
 744:Generated_Source\PSoC4/capsense_INT.c **** * \brief
 745:Generated_Source\PSoC4/capsense_INT.c **** *   This function reads rawdata and releases required HW resources after scan.
 746:Generated_Source\PSoC4/capsense_INT.c **** *
 747:Generated_Source\PSoC4/capsense_INT.c **** * \details
 748:Generated_Source\PSoC4/capsense_INT.c **** *   This function performs following tasks after scan:
 749:Generated_Source\PSoC4/capsense_INT.c **** *   - Reads SlotResult from Raw Counter;
 750:Generated_Source\PSoC4/capsense_INT.c **** *   - Inits bad Conversions number;
 751:Generated_Source\PSoC4/capsense_INT.c **** *   - Disconnects Vrefhi from AMUBUF positive input;
 752:Generated_Source\PSoC4/capsense_INT.c **** *   - Disconnects AMUBUF output from CSDBUSB with sych PHI2+HSCMP;
 753:Generated_Source\PSoC4/capsense_INT.c **** *   - Opens HCBV and HCBG switches.
 754:Generated_Source\PSoC4/capsense_INT.c **** *
 755:Generated_Source\PSoC4/capsense_INT.c **** *******************************************************************************/
 756:Generated_Source\PSoC4/capsense_INT.c **** static void capsense_SsCSDPostScan(void)
 757:Generated_Source\PSoC4/capsense_INT.c **** {
  27              		.loc 1 757 0
  28              		.cfi_startproc
  29              		@ args = 0, pretend = 0, frame = 0
  30              		@ frame_needed = 0, uses_anonymous_args = 0
  31              		@ link register save eliminated.
 758:Generated_Source\PSoC4/capsense_INT.c ****     #if (capsense_ENABLE == capsense_CSDV2)
 759:Generated_Source\PSoC4/capsense_INT.c **** 
 760:Generated_Source\PSoC4/capsense_INT.c ****         uint32 tmpRawData;
 761:Generated_Source\PSoC4/capsense_INT.c ****         uint32 tmpMaxCount;
 762:Generated_Source\PSoC4/capsense_INT.c ****         capsense_RAM_WD_BASE_STRUCT const *ptrWdgt = (capsense_RAM_WD_BASE_STRUCT *)
 763:Generated_Source\PSoC4/capsense_INT.c ****                                             capsense_dsFlash.wdgtArray[capsense_widgetIndex].ptr2Wd
  32              		.loc 1 763 0
  33 0000 104B     		ldr	r3, .L4
  34 0002 1B78     		ldrb	r3, [r3]
  35 0004 DBB2     		uxtb	r3, r3
ARM GAS  C:\Users\Usuario\AppData\Local\Temp\ccFtlcAy.s 			page 15


 762:Generated_Source\PSoC4/capsense_INT.c ****                                             capsense_dsFlash.wdgtArray[capsense_widgetIndex].ptr2Wd
  36              		.loc 1 762 0
  37 0006 9A00     		lsls	r2, r3, #2
  38 0008 D318     		adds	r3, r2, r3
  39 000a DA00     		lsls	r2, r3, #3
  40 000c 0E4B     		ldr	r3, .L4+4
  41 000e 9A18     		adds	r2, r3, r2
  42 0010 5368     		ldr	r3, [r2, #4]
  43              	.LVL0:
 764:Generated_Source\PSoC4/capsense_INT.c **** 
 765:Generated_Source\PSoC4/capsense_INT.c ****         /* Read SlotResult from Raw Counter */
 766:Generated_Source\PSoC4/capsense_INT.c ****         tmpRawData = capsense_RESULT_VAL1_VALUE_MASK & CY_GET_REG32(capsense_COUNTER_PTR);
  44              		.loc 1 766 0
  45 0012 0E4A     		ldr	r2, .L4+8
  46 0014 1168     		ldr	r1, [r2]
  47 0016 0A04     		lsls	r2, r1, #16
  48 0018 120C     		lsrs	r2, r2, #16
  49              	.LVL1:
 767:Generated_Source\PSoC4/capsense_INT.c **** 
 768:Generated_Source\PSoC4/capsense_INT.c ****         tmpMaxCount = ((1uL << ptrWdgt->resolution) - 1uL);
  50              		.loc 1 768 0
  51 001a 1888     		ldrh	r0, [r3]
  52 001c 0123     		movs	r3, #1
  53              	.LVL2:
  54 001e 8340     		lsls	r3, r3, r0
  55 0020 013B     		subs	r3, r3, #1
  56              	.LVL3:
 769:Generated_Source\PSoC4/capsense_INT.c ****         if(tmpRawData < tmpMaxCount)
  57              		.loc 1 769 0
  58 0022 9A42     		cmp	r2, r3
  59 0024 06D2     		bcs	.L2
 770:Generated_Source\PSoC4/capsense_INT.c ****         {
 771:Generated_Source\PSoC4/capsense_INT.c ****             capsense_curRamSnsPtr->raw[capsense_scanFreqIndex] = LO16(tmpRawData);
  60              		.loc 1 771 0
  61 0026 0A4B     		ldr	r3, .L4+12
  62              	.LVL4:
  63 0028 1A68     		ldr	r2, [r3]
  64              	.LVL5:
  65 002a 0A4B     		ldr	r3, .L4+16
  66 002c 1B78     		ldrb	r3, [r3]
  67 002e 5B00     		lsls	r3, r3, #1
  68 0030 D152     		strh	r1, [r2, r3]
  69 0032 05E0     		b	.L1
  70              	.LVL6:
  71              	.L2:
 772:Generated_Source\PSoC4/capsense_INT.c ****         }
 773:Generated_Source\PSoC4/capsense_INT.c ****         else
 774:Generated_Source\PSoC4/capsense_INT.c ****         {
 775:Generated_Source\PSoC4/capsense_INT.c ****             capsense_curRamSnsPtr->raw[capsense_scanFreqIndex] = LO16(tmpMaxCount);
  72              		.loc 1 775 0
  73 0034 064A     		ldr	r2, .L4+12
  74              	.LVL7:
  75 0036 1168     		ldr	r1, [r2]
  76              	.LVL8:
  77 0038 064A     		ldr	r2, .L4+16
  78 003a 1278     		ldrb	r2, [r2]
  79 003c 5200     		lsls	r2, r2, #1
ARM GAS  C:\Users\Usuario\AppData\Local\Temp\ccFtlcAy.s 			page 16


  80 003e 8B52     		strh	r3, [r1, r2]
  81              	.LVL9:
  82              	.L1:
 776:Generated_Source\PSoC4/capsense_INT.c ****         }
 777:Generated_Source\PSoC4/capsense_INT.c **** 
 778:Generated_Source\PSoC4/capsense_INT.c ****         #if (capsense_ENABLE == capsense_CSD_NOISE_METRIC_EN)
 779:Generated_Source\PSoC4/capsense_INT.c ****             /* Init bad Conversions number */
 780:Generated_Source\PSoC4/capsense_INT.c ****             capsense_badConversionsNum = capsense_BAD_CONVERSIONS_NUM;
 781:Generated_Source\PSoC4/capsense_INT.c ****         #endif /* (capsense_ENABLE == capsense_CSD_NOISE_METRIC_EN) */
 782:Generated_Source\PSoC4/capsense_INT.c **** 
 783:Generated_Source\PSoC4/capsense_INT.c ****         #if (capsense_ENABLE == capsense_CSD_SHIELD_EN)
 784:Generated_Source\PSoC4/capsense_INT.c ****             /* Open HCBV and HCBG switches */
 785:Generated_Source\PSoC4/capsense_INT.c ****             CY_SET_REG32(capsense_SW_SHIELD_SEL_PTR, capsense_SW_SHIELD_SEL_SW_HCBV_STATIC_OPEN |
 786:Generated_Source\PSoC4/capsense_INT.c ****                                                              capsense_SW_SHIELD_SEL_SW_HCBG_STATIC_
 787:Generated_Source\PSoC4/capsense_INT.c ****         #endif /* (capsense_ENABLE == capsense_CSD_SHIELD_EN) */
 788:Generated_Source\PSoC4/capsense_INT.c **** 
 789:Generated_Source\PSoC4/capsense_INT.c ****     #else
 790:Generated_Source\PSoC4/capsense_INT.c **** 
 791:Generated_Source\PSoC4/capsense_INT.c ****         /* Read SlotResult from Raw Counter */
 792:Generated_Source\PSoC4/capsense_INT.c ****        capsense_curRamSnsPtr->raw[capsense_scanFreqIndex] = (uint16)CY_GET_REG32(capsense_COUNTER_P
 793:Generated_Source\PSoC4/capsense_INT.c **** 
 794:Generated_Source\PSoC4/capsense_INT.c ****     #endif /* (capsense_ENABLE == capsense_CSDV2) */
 795:Generated_Source\PSoC4/capsense_INT.c **** }
  83              		.loc 1 795 0
  84              		@ sp needed
  85 0040 7047     		bx	lr
  86              	.L5:
  87 0042 C046     		.align	2
  88              	.L4:
  89 0044 00000000 		.word	capsense_widgetIndex
  90 0048 00000000 		.word	capsense_dsFlash
  91 004c D0000B40 		.word	1074462928
  92 0050 00000000 		.word	capsense_curRamSnsPtr
  93 0054 00000000 		.word	capsense_scanFreqIndex
  94              		.cfi_endproc
  95              	.LFE3:
  96              		.size	capsense_SsCSDPostScan, .-capsense_SsCSDPostScan
  97              		.section	.text.capsense_SsCSDInitNextScan,"ax",%progbits
  98              		.align	2
  99              		.code	16
 100              		.thumb_func
 101              		.type	capsense_SsCSDInitNextScan, %function
 102              	capsense_SsCSDInitNextScan:
 103              	.LFB4:
 796:Generated_Source\PSoC4/capsense_INT.c **** 
 797:Generated_Source\PSoC4/capsense_INT.c **** 
 798:Generated_Source\PSoC4/capsense_INT.c **** /*******************************************************************************
 799:Generated_Source\PSoC4/capsense_INT.c **** * Function Name: capsense_SsCSDInitNextScan
 800:Generated_Source\PSoC4/capsense_INT.c **** ****************************************************************************//**
 801:Generated_Source\PSoC4/capsense_INT.c **** *
 802:Generated_Source\PSoC4/capsense_INT.c **** * \brief
 803:Generated_Source\PSoC4/capsense_INT.c **** *   This function initializes the next sensor scan.
 804:Generated_Source\PSoC4/capsense_INT.c **** *
 805:Generated_Source\PSoC4/capsense_INT.c **** * \details
 806:Generated_Source\PSoC4/capsense_INT.c **** *   The function increments the sensor index, updates sense clock for matrix
 807:Generated_Source\PSoC4/capsense_INT.c **** *   or touchpad widgets only, sets up Compensation IDAC, enables the sensor and
 808:Generated_Source\PSoC4/capsense_INT.c **** *   scans it. When all the sensors are scanned it continues to set up the next widget
ARM GAS  C:\Users\Usuario\AppData\Local\Temp\ccFtlcAy.s 			page 17


 809:Generated_Source\PSoC4/capsense_INT.c **** *   until all the widgets are scanned. The CSD block is disabled when all the widgets are
 810:Generated_Source\PSoC4/capsense_INT.c **** *   scanned.
 811:Generated_Source\PSoC4/capsense_INT.c **** *
 812:Generated_Source\PSoC4/capsense_INT.c **** *******************************************************************************/
 813:Generated_Source\PSoC4/capsense_INT.c **** static void capsense_SsCSDInitNextScan(void)
 814:Generated_Source\PSoC4/capsense_INT.c **** {
 104              		.loc 1 814 0
 105              		.cfi_startproc
 106              		@ args = 0, pretend = 0, frame = 0
 107              		@ frame_needed = 0, uses_anonymous_args = 0
 108 0000 70B5     		push	{r4, r5, r6, lr}
 109              		.cfi_def_cfa_offset 16
 110              		.cfi_offset 4, -16
 111              		.cfi_offset 5, -12
 112              		.cfi_offset 6, -8
 113              		.cfi_offset 14, -4
 815:Generated_Source\PSoC4/capsense_INT.c ****     /* Declare and initialize ptr to widget and sensor structures to appropriate address */
 816:Generated_Source\PSoC4/capsense_INT.c ****     #if (((capsense_ENABLE == capsense_CSD_IDAC_COMP_EN) || \
 817:Generated_Source\PSoC4/capsense_INT.c ****           (capsense_CSD_MATRIX_WIDGET_EN || capsense_CSD_TOUCHPAD_WIDGET_EN)) || \
 818:Generated_Source\PSoC4/capsense_INT.c ****           (((capsense_DISABLE == capsense_CSD_COMMON_SNS_CLK_EN) && \
 819:Generated_Source\PSoC4/capsense_INT.c ****           (capsense_ENABLE == capsense_CSDV2) && \
 820:Generated_Source\PSoC4/capsense_INT.c ****           (capsense_CSD_MATRIX_WIDGET_EN || capsense_CSD_TOUCHPAD_WIDGET_EN))))
 821:Generated_Source\PSoC4/capsense_INT.c ****         capsense_RAM_WD_BASE_STRUCT *ptrWdgt = (capsense_RAM_WD_BASE_STRUCT *)
 822:Generated_Source\PSoC4/capsense_INT.c ****                                                         capsense_dsFlash.wdgtArray[capsense_widgetI
 114              		.loc 1 822 0
 115 0002 274A     		ldr	r2, .L10
 116 0004 1378     		ldrb	r3, [r2]
 117 0006 DBB2     		uxtb	r3, r3
 821:Generated_Source\PSoC4/capsense_INT.c ****                                                         capsense_dsFlash.wdgtArray[capsense_widgetI
 118              		.loc 1 821 0
 119 0008 264C     		ldr	r4, .L10+4
 120 000a 9900     		lsls	r1, r3, #2
 121 000c CB18     		adds	r3, r1, r3
 122 000e D900     		lsls	r1, r3, #3
 123 0010 6118     		adds	r1, r4, r1
 124 0012 4868     		ldr	r0, [r1, #4]
 125              	.LVL10:
 823:Generated_Source\PSoC4/capsense_INT.c ****     #endif
 824:Generated_Source\PSoC4/capsense_INT.c **** 
 825:Generated_Source\PSoC4/capsense_INT.c ****     /* Check if all the sensors are scanned in widget */
 826:Generated_Source\PSoC4/capsense_INT.c ****     if (((uint8)capsense_dsFlash.wdgtArray[(capsense_widgetIndex)].totalNumSns - 1u) > capsense_sen
 126              		.loc 1 826 0
 127 0014 1378     		ldrb	r3, [r2]
 128 0016 DBB2     		uxtb	r3, r3
 129 0018 9A00     		lsls	r2, r3, #2
 130 001a D318     		adds	r3, r2, r3
 131 001c DA00     		lsls	r2, r3, #3
 132 001e A218     		adds	r2, r4, r2
 133 0020 127E     		ldrb	r2, [r2, #24]
 134 0022 013A     		subs	r2, r2, #1
 135 0024 204B     		ldr	r3, .L10+8
 136 0026 1B78     		ldrb	r3, [r3]
 137 0028 DBB2     		uxtb	r3, r3
 138 002a 9A42     		cmp	r2, r3
 139 002c 20D9     		bls	.L7
 827:Generated_Source\PSoC4/capsense_INT.c ****     {
 828:Generated_Source\PSoC4/capsense_INT.c ****         /* Increment sensor index to configure next sensor in widget */
ARM GAS  C:\Users\Usuario\AppData\Local\Temp\ccFtlcAy.s 			page 18


 829:Generated_Source\PSoC4/capsense_INT.c ****         capsense_sensorIndex++;
 140              		.loc 1 829 0
 141 002e 1E4C     		ldr	r4, .L10+8
 142 0030 2378     		ldrb	r3, [r4]
 143 0032 0133     		adds	r3, r3, #1
 144 0034 DBB2     		uxtb	r3, r3
 145 0036 2370     		strb	r3, [r4]
 830:Generated_Source\PSoC4/capsense_INT.c **** 
 831:Generated_Source\PSoC4/capsense_INT.c ****         /* Update global pointer to capsense_RAM_SNS_STRUCT to current sensor  */
 832:Generated_Source\PSoC4/capsense_INT.c ****         capsense_curRamSnsPtr = (capsense_RAM_SNS_STRUCT *)
 146              		.loc 1 832 0
 147 0038 194D     		ldr	r5, .L10
 148 003a 2B78     		ldrb	r3, [r5]
 149 003c DBB2     		uxtb	r3, r3
 833:Generated_Source\PSoC4/capsense_INT.c ****                                                   capsense_dsFlash.wdgtArray[capsense_widgetIndex].
 150              		.loc 1 833 0
 151 003e 9A00     		lsls	r2, r3, #2
 152 0040 D318     		adds	r3, r2, r3
 153 0042 DA00     		lsls	r2, r3, #3
 154 0044 174B     		ldr	r3, .L10+4
 155 0046 9A18     		adds	r2, r3, r2
 156 0048 9168     		ldr	r1, [r2, #8]
 834:Generated_Source\PSoC4/capsense_INT.c ****                                                   + capsense_sensorIndex;
 157              		.loc 1 834 0
 158 004a 2378     		ldrb	r3, [r4]
 159 004c DBB2     		uxtb	r3, r3
 160 004e 9A00     		lsls	r2, r3, #2
 161 0050 D318     		adds	r3, r2, r3
 162 0052 5A00     		lsls	r2, r3, #1
 163 0054 8A18     		adds	r2, r1, r2
 832:Generated_Source\PSoC4/capsense_INT.c ****                                                   capsense_dsFlash.wdgtArray[capsense_widgetIndex].
 164              		.loc 1 832 0
 165 0056 154B     		ldr	r3, .L10+12
 166 0058 1A60     		str	r2, [r3]
 835:Generated_Source\PSoC4/capsense_INT.c **** 
 836:Generated_Source\PSoC4/capsense_INT.c ****         /* Configure clock divider to row or column */
 837:Generated_Source\PSoC4/capsense_INT.c ****         #if ((capsense_DISABLE == capsense_CSD_COMMON_SNS_CLK_EN) && \
 838:Generated_Source\PSoC4/capsense_INT.c ****              (capsense_CSD_MATRIX_WIDGET_EN || capsense_CSD_TOUCHPAD_WIDGET_EN))
 839:Generated_Source\PSoC4/capsense_INT.c ****             capsense_SsCSDConfigClock();
 840:Generated_Source\PSoC4/capsense_INT.c **** 
 841:Generated_Source\PSoC4/capsense_INT.c ****             #if (capsense_ENABLE == capsense_CSDV2)
 842:Generated_Source\PSoC4/capsense_INT.c ****                  /* Set up scanning resolution */
 843:Generated_Source\PSoC4/capsense_INT.c ****                 capsense_SsCSDCalculateScanDuration(ptrWdgt);
 844:Generated_Source\PSoC4/capsense_INT.c ****             #endif
 845:Generated_Source\PSoC4/capsense_INT.c ****         #endif
 846:Generated_Source\PSoC4/capsense_INT.c **** 
 847:Generated_Source\PSoC4/capsense_INT.c ****         /* Setup Compensation IDAC for next sensor in widget */
 848:Generated_Source\PSoC4/capsense_INT.c ****         #if ((capsense_ENABLE == capsense_CSD_IDAC_COMP_EN) || \
 849:Generated_Source\PSoC4/capsense_INT.c ****              (capsense_CSD_MATRIX_WIDGET_EN || capsense_CSD_TOUCHPAD_WIDGET_EN))
 850:Generated_Source\PSoC4/capsense_INT.c ****             capsense_SsCSDSetUpIdacs(ptrWdgt);
 167              		.loc 1 850 0
 168 005a FFF7FEFF 		bl	capsense_SsCSDSetUpIdacs
 169              	.LVL11:
 851:Generated_Source\PSoC4/capsense_INT.c ****         #endif /* ((capsense_ENABLE == capsense_CSD_IDAC_COMP_EN) || \
 852:Generated_Source\PSoC4/capsense_INT.c ****                    (capsense_CSD_MATRIX_WIDGET_EN || capsense_CSD_TOUCHPAD_WIDGET_EN)) */
 853:Generated_Source\PSoC4/capsense_INT.c **** 
 854:Generated_Source\PSoC4/capsense_INT.c ****         /* Enable sensor */
ARM GAS  C:\Users\Usuario\AppData\Local\Temp\ccFtlcAy.s 			page 19


 855:Generated_Source\PSoC4/capsense_INT.c ****         capsense_SsCSDConnectSensorExt((uint32)capsense_widgetIndex, (uint32)capsense_sensorIndex);
 170              		.loc 1 855 0
 171 005e 2878     		ldrb	r0, [r5]
 172 0060 C0B2     		uxtb	r0, r0
 173 0062 2178     		ldrb	r1, [r4]
 174 0064 C9B2     		uxtb	r1, r1
 175 0066 FFF7FEFF 		bl	capsense_SsCSDConnectSensorExt
 176              	.LVL12:
 856:Generated_Source\PSoC4/capsense_INT.c **** 
 857:Generated_Source\PSoC4/capsense_INT.c ****         /* Proceed scanning */
 858:Generated_Source\PSoC4/capsense_INT.c ****         capsense_SsCSDStartSample();
 177              		.loc 1 858 0
 178 006a FFF7FEFF 		bl	capsense_SsCSDStartSample
 179              	.LVL13:
 180 006e 16E0     		b	.L6
 181              	.LVL14:
 182              	.L7:
 859:Generated_Source\PSoC4/capsense_INT.c ****     }
 860:Generated_Source\PSoC4/capsense_INT.c ****     /* Call scan next widget API if requested, if not, complete the scan  */
 861:Generated_Source\PSoC4/capsense_INT.c ****     else
 862:Generated_Source\PSoC4/capsense_INT.c ****     {
 863:Generated_Source\PSoC4/capsense_INT.c ****         capsense_sensorIndex = 0u;
 183              		.loc 1 863 0
 184 0070 0022     		movs	r2, #0
 185 0072 0D4B     		ldr	r3, .L10+8
 186 0074 1A70     		strb	r2, [r3]
 864:Generated_Source\PSoC4/capsense_INT.c **** 
 865:Generated_Source\PSoC4/capsense_INT.c ****         /* Current widget is totally scanned. Reset WIDGET BUSY flag */
 866:Generated_Source\PSoC4/capsense_INT.c ****         capsense_dsRam.status &= ~capsense_WDGT_SW_STS_BUSY;
 187              		.loc 1 866 0
 188 0076 0E4A     		ldr	r2, .L10+16
 189 0078 D168     		ldr	r1, [r2, #12]
 190 007a 0E4B     		ldr	r3, .L10+20
 191 007c 0B40     		ands	r3, r1
 192 007e D360     		str	r3, [r2, #12]
 867:Generated_Source\PSoC4/capsense_INT.c **** 
 868:Generated_Source\PSoC4/capsense_INT.c ****         /* Check if all the widgets have been scanned */
 869:Generated_Source\PSoC4/capsense_INT.c ****         if (capsense_ENABLE == capsense_requestScanAllWidget)
 193              		.loc 1 869 0
 194 0080 0D4B     		ldr	r3, .L10+24
 195 0082 1B78     		ldrb	r3, [r3]
 196 0084 012B     		cmp	r3, #1
 197 0086 02D1     		bne	.L9
 870:Generated_Source\PSoC4/capsense_INT.c ****         {
 871:Generated_Source\PSoC4/capsense_INT.c ****             /* Configure and begin scanning next widget */
 872:Generated_Source\PSoC4/capsense_INT.c ****             capsense_SsPostAllWidgetsScan();
 198              		.loc 1 872 0
 199 0088 FFF7FEFF 		bl	capsense_SsPostAllWidgetsScan
 200              	.LVL15:
 201 008c 07E0     		b	.L6
 202              	.LVL16:
 203              	.L9:
 873:Generated_Source\PSoC4/capsense_INT.c ****         }
 874:Generated_Source\PSoC4/capsense_INT.c ****         else
 875:Generated_Source\PSoC4/capsense_INT.c ****         {
 876:Generated_Source\PSoC4/capsense_INT.c ****             #if (capsense_ENABLE == capsense_BLOCK_OFF_AFTER_SCAN_EN)
 877:Generated_Source\PSoC4/capsense_INT.c ****                 #if (capsense_ENABLE == capsense_CSDV2)
ARM GAS  C:\Users\Usuario\AppData\Local\Temp\ccFtlcAy.s 			page 20


 878:Generated_Source\PSoC4/capsense_INT.c ****                     /* Disable the CSD block */
 879:Generated_Source\PSoC4/capsense_INT.c ****                     CY_SET_REG32(capsense_CONFIG_PTR, capsense_configCsd);
 880:Generated_Source\PSoC4/capsense_INT.c ****                 #else
 881:Generated_Source\PSoC4/capsense_INT.c ****                     /* Disable the CSD block. Connect Vref Buffer to AMUX bus */
 882:Generated_Source\PSoC4/capsense_INT.c ****                     #if ((capsense_CSH_PRECHARGE_IO_BUF == capsense_CSD_CSH_PRECHARGE_SRC) &&\
 883:Generated_Source\PSoC4/capsense_INT.c ****                          (capsense_ENABLE == capsense_CSD_SHIELD_TANK_EN))
 884:Generated_Source\PSoC4/capsense_INT.c ****                         CY_SET_REG32(capsense_CONFIG_PTR, capsense_configCsd | capsense_CMOD_PRECHA
 885:Generated_Source\PSoC4/capsense_INT.c ****                     #else
 886:Generated_Source\PSoC4/capsense_INT.c ****                         CY_SET_REG32(capsense_CONFIG_PTR, capsense_configCsd | capsense_CTANK_PRECH
 887:Generated_Source\PSoC4/capsense_INT.c ****                     #endif
 888:Generated_Source\PSoC4/capsense_INT.c ****                 #endif
 889:Generated_Source\PSoC4/capsense_INT.c ****             #endif
 890:Generated_Source\PSoC4/capsense_INT.c **** 
 891:Generated_Source\PSoC4/capsense_INT.c ****             /* All widgets are totally scanned. Reset BUSY flag */
 892:Generated_Source\PSoC4/capsense_INT.c ****             capsense_dsRam.status &= ~capsense_SW_STS_BUSY;
 204              		.loc 1 892 0
 205 008e 084B     		ldr	r3, .L10+16
 206 0090 DA68     		ldr	r2, [r3, #12]
 207 0092 8021     		movs	r1, #128
 208 0094 8A43     		bics	r2, r1
 209 0096 DA60     		str	r2, [r3, #12]
 893:Generated_Source\PSoC4/capsense_INT.c **** 
 894:Generated_Source\PSoC4/capsense_INT.c ****             /* Update scan Counter */
 895:Generated_Source\PSoC4/capsense_INT.c ****             capsense_dsRam.scanCounter++;
 210              		.loc 1 895 0
 211 0098 1A89     		ldrh	r2, [r3, #8]
 212 009a 0132     		adds	r2, r2, #1
 213 009c 1A81     		strh	r2, [r3, #8]
 214              	.LVL17:
 215              	.L6:
 896:Generated_Source\PSoC4/capsense_INT.c ****         }
 897:Generated_Source\PSoC4/capsense_INT.c ****     }
 898:Generated_Source\PSoC4/capsense_INT.c **** }
 216              		.loc 1 898 0
 217              		@ sp needed
 218 009e 70BD     		pop	{r4, r5, r6, pc}
 219              	.L11:
 220              		.align	2
 221              	.L10:
 222 00a0 00000000 		.word	capsense_widgetIndex
 223 00a4 00000000 		.word	capsense_dsFlash
 224 00a8 00000000 		.word	capsense_sensorIndex
 225 00ac 00000000 		.word	capsense_curRamSnsPtr
 226 00b0 00000000 		.word	capsense_dsRam
 227 00b4 FFFFFEFF 		.word	-65537
 228 00b8 00000000 		.word	capsense_requestScanAllWidget
 229              		.cfi_endproc
 230              	.LFE4:
 231              		.size	capsense_SsCSDInitNextScan, .-capsense_SsCSDInitNextScan
 232              		.section	.text.capsense_CSDPostSingleScan,"ax",%progbits
 233              		.align	2
 234              		.global	capsense_CSDPostSingleScan
 235              		.code	16
 236              		.thumb_func
 237              		.type	capsense_CSDPostSingleScan, %function
 238              	capsense_CSDPostSingleScan:
 239              	.LFB1:
ARM GAS  C:\Users\Usuario\AppData\Local\Temp\ccFtlcAy.s 			page 21


 122:Generated_Source\PSoC4/capsense_INT.c ****         #ifdef capsense_ENTRY_CALLBACK
 240              		.loc 1 122 0
 241              		.cfi_startproc
 242              		@ args = 0, pretend = 0, frame = 0
 243              		@ frame_needed = 0, uses_anonymous_args = 0
 244 0000 10B5     		push	{r4, lr}
 245              		.cfi_def_cfa_offset 8
 246              		.cfi_offset 4, -8
 247              		.cfi_offset 14, -4
 128:Generated_Source\PSoC4/capsense_INT.c **** 
 248              		.loc 1 128 0
 249 0002 8322     		movs	r2, #131
 250 0004 5200     		lsls	r2, r2, #1
 251 0006 064B     		ldr	r3, .L13
 252 0008 1A60     		str	r2, [r3]
 148:Generated_Source\PSoC4/capsense_INT.c **** 
 253              		.loc 1 148 0
 254 000a FFF7FEFF 		bl	capsense_SsCSDPostScan
 255              	.LVL18:
 186:Generated_Source\PSoC4/capsense_INT.c **** 
 256              		.loc 1 186 0
 257 000e 054B     		ldr	r3, .L13+4
 258 0010 1A89     		ldrh	r2, [r3, #8]
 259 0012 0132     		adds	r2, r2, #1
 260 0014 1A81     		strh	r2, [r3, #8]
 189:Generated_Source\PSoC4/capsense_INT.c ****                 }
 261              		.loc 1 189 0
 262 0016 D968     		ldr	r1, [r3, #12]
 263 0018 034A     		ldr	r2, .L13+8
 264 001a 0A40     		ands	r2, r1
 265 001c DA60     		str	r2, [r3, #12]
 199:Generated_Source\PSoC4/capsense_INT.c **** 
 266              		.loc 1 199 0
 267              		@ sp needed
 268 001e 10BD     		pop	{r4, pc}
 269              	.L14:
 270              		.align	2
 271              	.L13:
 272 0020 F0000B40 		.word	1074462960
 273 0024 00000000 		.word	capsense_dsRam
 274 0028 7FFFFEFF 		.word	-65665
 275              		.cfi_endproc
 276              	.LFE1:
 277              		.size	capsense_CSDPostSingleScan, .-capsense_CSDPostSingleScan
 278              		.section	.text.capsense_CSDPostMultiScan,"ax",%progbits
 279              		.align	2
 280              		.global	capsense_CSDPostMultiScan
 281              		.code	16
 282              		.thumb_func
 283              		.type	capsense_CSDPostMultiScan, %function
 284              	capsense_CSDPostMultiScan:
 285              	.LFB2:
 238:Generated_Source\PSoC4/capsense_INT.c ****         /* Declare and initialize ptr to sensor IO structure to appropriate address */
 286              		.loc 1 238 0
 287              		.cfi_startproc
 288              		@ args = 0, pretend = 0, frame = 0
 289              		@ frame_needed = 0, uses_anonymous_args = 0
ARM GAS  C:\Users\Usuario\AppData\Local\Temp\ccFtlcAy.s 			page 22


 290 0000 10B5     		push	{r4, lr}
 291              		.cfi_def_cfa_offset 8
 292              		.cfi_offset 4, -8
 293              		.cfi_offset 14, -4
 240:Generated_Source\PSoC4/capsense_INT.c ****                                                           capsense_dsFlash.wdgtArray[capsense_widge
 294              		.loc 1 240 0
 295 0002 0D4B     		ldr	r3, .L16
 296 0004 1B78     		ldrb	r3, [r3]
 297 0006 DBB2     		uxtb	r3, r3
 241:Generated_Source\PSoC4/capsense_INT.c ****                                                           + capsense_sensorIndex;
 298              		.loc 1 241 0
 299 0008 9A00     		lsls	r2, r3, #2
 300 000a D318     		adds	r3, r2, r3
 301 000c DA00     		lsls	r2, r3, #3
 302 000e 0B4B     		ldr	r3, .L16+4
 303 0010 D458     		ldr	r4, [r2, r3]
 242:Generated_Source\PSoC4/capsense_INT.c **** 
 304              		.loc 1 242 0
 305 0012 0B4B     		ldr	r3, .L16+8
 306 0014 1A78     		ldrb	r2, [r3]
 307 0016 D2B2     		uxtb	r2, r2
 308 0018 D100     		lsls	r1, r2, #3
 309 001a 8A1A     		subs	r2, r1, r2
 310 001c 9300     		lsls	r3, r2, #2
 240:Generated_Source\PSoC4/capsense_INT.c ****                                                           capsense_dsFlash.wdgtArray[capsense_widge
 311              		.loc 1 240 0
 312 001e E418     		adds	r4, r4, r3
 313              	.LVL19:
 249:Generated_Source\PSoC4/capsense_INT.c **** 
 314              		.loc 1 249 0
 315 0020 8322     		movs	r2, #131
 316 0022 5200     		lsls	r2, r2, #1
 317 0024 074B     		ldr	r3, .L16+12
 318 0026 1A60     		str	r2, [r3]
 269:Generated_Source\PSoC4/capsense_INT.c **** 
 319              		.loc 1 269 0
 320 0028 FFF7FEFF 		bl	capsense_SsCSDPostScan
 321              	.LVL20:
 277:Generated_Source\PSoC4/capsense_INT.c ****             }
 322              		.loc 1 277 0
 323 002c 2000     		movs	r0, r4
 324 002e FFF7FEFF 		bl	capsense_CSDDisconnectSns
 325              	.LVL21:
 302:Generated_Source\PSoC4/capsense_INT.c ****             #endif /* (capsense_ENABLE == capsense_MULTI_FREQ_SCAN_EN) */
 326              		.loc 1 302 0
 327 0032 FFF7FEFF 		bl	capsense_SsCSDInitNextScan
 328              	.LVL22:
 311:Generated_Source\PSoC4/capsense_INT.c **** 
 329              		.loc 1 311 0
 330              		@ sp needed
 331              	.LVL23:
 332 0036 10BD     		pop	{r4, pc}
 333              	.L17:
 334              		.align	2
 335              	.L16:
 336 0038 00000000 		.word	capsense_widgetIndex
 337 003c 00000000 		.word	capsense_dsFlash
ARM GAS  C:\Users\Usuario\AppData\Local\Temp\ccFtlcAy.s 			page 23


 338 0040 00000000 		.word	capsense_sensorIndex
 339 0044 F0000B40 		.word	1074462960
 340              		.cfi_endproc
 341              	.LFE2:
 342              		.size	capsense_CSDPostMultiScan, .-capsense_CSDPostMultiScan
 343              		.text
 344              	.Letext0:
 345              		.file 2 "Generated_Source\\PSoC4\\cytypes.h"
 346              		.file 3 "Generated_Source\\PSoC4\\capsense_Configuration.h"
 347              		.file 4 "Generated_Source\\PSoC4\\capsense_Structure.h"
 348              		.file 5 "Generated_Source\\PSoC4\\capsense_Sensing.h"
 349              		.file 6 "Generated_Source\\PSoC4\\capsense_SensingCSD_LL.h"
