ARM GAS  C:\Users\Usuario\AppData\Local\Temp\cce4Svqp.s 			page 1


   1              		.syntax unified
   2              		.cpu cortex-m0
   3              		.fpu softvfp
   4              		.eabi_attribute 20, 1
   5              		.eabi_attribute 21, 1
   6              		.eabi_attribute 23, 3
   7              		.eabi_attribute 24, 1
   8              		.eabi_attribute 25, 1
   9              		.eabi_attribute 26, 1
  10              		.eabi_attribute 30, 1
  11              		.eabi_attribute 34, 0
  12              		.eabi_attribute 18, 4
  13              		.thumb
  14              		.syntax unified
  15              		.file	"pwm1_PM.c"
  16              		.text
  17              	.Ltext0:
  18              		.cfi_sections	.debug_frame
  19              		.section	.text.pwm1_SaveConfig,"ax",%progbits
  20              		.align	2
  21              		.global	pwm1_SaveConfig
  22              		.code	16
  23              		.thumb_func
  24              		.type	pwm1_SaveConfig, %function
  25              	pwm1_SaveConfig:
  26              	.LFB0:
  27              		.file 1 "Generated_Source\\PSoC4\\pwm1_PM.c"
   1:Generated_Source\PSoC4/pwm1_PM.c **** /*******************************************************************************
   2:Generated_Source\PSoC4/pwm1_PM.c **** * File Name: pwm1_PM.c
   3:Generated_Source\PSoC4/pwm1_PM.c **** * Version 2.10
   4:Generated_Source\PSoC4/pwm1_PM.c **** *
   5:Generated_Source\PSoC4/pwm1_PM.c **** * Description:
   6:Generated_Source\PSoC4/pwm1_PM.c **** *  This file contains the setup, control, and status commands to support
   7:Generated_Source\PSoC4/pwm1_PM.c **** *  the component operations in the low power mode.
   8:Generated_Source\PSoC4/pwm1_PM.c **** *
   9:Generated_Source\PSoC4/pwm1_PM.c **** * Note:
  10:Generated_Source\PSoC4/pwm1_PM.c **** *  None
  11:Generated_Source\PSoC4/pwm1_PM.c **** *
  12:Generated_Source\PSoC4/pwm1_PM.c **** ********************************************************************************
  13:Generated_Source\PSoC4/pwm1_PM.c **** * Copyright 2013-2015, Cypress Semiconductor Corporation.  All rights reserved.
  14:Generated_Source\PSoC4/pwm1_PM.c **** * You may use this file only in accordance with the license, terms, conditions,
  15:Generated_Source\PSoC4/pwm1_PM.c **** * disclaimers, and limitations in the end user license agreement accompanying
  16:Generated_Source\PSoC4/pwm1_PM.c **** * the software package with which this file was provided.
  17:Generated_Source\PSoC4/pwm1_PM.c **** *******************************************************************************/
  18:Generated_Source\PSoC4/pwm1_PM.c **** 
  19:Generated_Source\PSoC4/pwm1_PM.c **** #include "pwm1.h"
  20:Generated_Source\PSoC4/pwm1_PM.c **** 
  21:Generated_Source\PSoC4/pwm1_PM.c **** static pwm1_BACKUP_STRUCT pwm1_backup;
  22:Generated_Source\PSoC4/pwm1_PM.c **** 
  23:Generated_Source\PSoC4/pwm1_PM.c **** 
  24:Generated_Source\PSoC4/pwm1_PM.c **** /*******************************************************************************
  25:Generated_Source\PSoC4/pwm1_PM.c **** * Function Name: pwm1_SaveConfig
  26:Generated_Source\PSoC4/pwm1_PM.c **** ********************************************************************************
  27:Generated_Source\PSoC4/pwm1_PM.c **** *
  28:Generated_Source\PSoC4/pwm1_PM.c **** * Summary:
  29:Generated_Source\PSoC4/pwm1_PM.c **** *  All configuration registers are retention. Nothing to save here.
  30:Generated_Source\PSoC4/pwm1_PM.c **** *
ARM GAS  C:\Users\Usuario\AppData\Local\Temp\cce4Svqp.s 			page 2


  31:Generated_Source\PSoC4/pwm1_PM.c **** * Parameters:
  32:Generated_Source\PSoC4/pwm1_PM.c **** *  None
  33:Generated_Source\PSoC4/pwm1_PM.c **** *
  34:Generated_Source\PSoC4/pwm1_PM.c **** * Return:
  35:Generated_Source\PSoC4/pwm1_PM.c **** *  None
  36:Generated_Source\PSoC4/pwm1_PM.c **** *
  37:Generated_Source\PSoC4/pwm1_PM.c **** *******************************************************************************/
  38:Generated_Source\PSoC4/pwm1_PM.c **** void pwm1_SaveConfig(void)
  39:Generated_Source\PSoC4/pwm1_PM.c **** {
  28              		.loc 1 39 0
  29              		.cfi_startproc
  30              		@ args = 0, pretend = 0, frame = 0
  31              		@ frame_needed = 0, uses_anonymous_args = 0
  32              		@ link register save eliminated.
  40:Generated_Source\PSoC4/pwm1_PM.c **** 
  41:Generated_Source\PSoC4/pwm1_PM.c **** }
  33              		.loc 1 41 0
  34              		@ sp needed
  35 0000 7047     		bx	lr
  36              		.cfi_endproc
  37              	.LFE0:
  38              		.size	pwm1_SaveConfig, .-pwm1_SaveConfig
  39 0002 C046     		.section	.text.pwm1_Sleep,"ax",%progbits
  40              		.align	2
  41              		.global	pwm1_Sleep
  42              		.code	16
  43              		.thumb_func
  44              		.type	pwm1_Sleep, %function
  45              	pwm1_Sleep:
  46              	.LFB1:
  42:Generated_Source\PSoC4/pwm1_PM.c **** 
  43:Generated_Source\PSoC4/pwm1_PM.c **** 
  44:Generated_Source\PSoC4/pwm1_PM.c **** /*******************************************************************************
  45:Generated_Source\PSoC4/pwm1_PM.c **** * Function Name: pwm1_Sleep
  46:Generated_Source\PSoC4/pwm1_PM.c **** ********************************************************************************
  47:Generated_Source\PSoC4/pwm1_PM.c **** *
  48:Generated_Source\PSoC4/pwm1_PM.c **** * Summary:
  49:Generated_Source\PSoC4/pwm1_PM.c **** *  Stops the component operation and saves the user configuration.
  50:Generated_Source\PSoC4/pwm1_PM.c **** *
  51:Generated_Source\PSoC4/pwm1_PM.c **** * Parameters:
  52:Generated_Source\PSoC4/pwm1_PM.c **** *  None
  53:Generated_Source\PSoC4/pwm1_PM.c **** *
  54:Generated_Source\PSoC4/pwm1_PM.c **** * Return:
  55:Generated_Source\PSoC4/pwm1_PM.c **** *  None
  56:Generated_Source\PSoC4/pwm1_PM.c **** *
  57:Generated_Source\PSoC4/pwm1_PM.c **** *******************************************************************************/
  58:Generated_Source\PSoC4/pwm1_PM.c **** void pwm1_Sleep(void)
  59:Generated_Source\PSoC4/pwm1_PM.c **** {
  47              		.loc 1 59 0
  48              		.cfi_startproc
  49              		@ args = 0, pretend = 0, frame = 0
  50              		@ frame_needed = 0, uses_anonymous_args = 0
  51 0000 10B5     		push	{r4, lr}
  52              		.cfi_def_cfa_offset 8
  53              		.cfi_offset 4, -8
  54              		.cfi_offset 14, -4
  60:Generated_Source\PSoC4/pwm1_PM.c ****     if(0u != (pwm1_BLOCK_CONTROL_REG & pwm1_MASK))
ARM GAS  C:\Users\Usuario\AppData\Local\Temp\cce4Svqp.s 			page 3


  55              		.loc 1 60 0
  56 0002 074B     		ldr	r3, .L5
  57 0004 1B68     		ldr	r3, [r3]
  58 0006 1B07     		lsls	r3, r3, #28
  59 0008 03D5     		bpl	.L3
  61:Generated_Source\PSoC4/pwm1_PM.c ****     {
  62:Generated_Source\PSoC4/pwm1_PM.c ****         pwm1_backup.enableState = 1u;
  60              		.loc 1 62 0
  61 000a 0122     		movs	r2, #1
  62 000c 054B     		ldr	r3, .L5+4
  63 000e 1A70     		strb	r2, [r3]
  64 0010 02E0     		b	.L4
  65              	.L3:
  63:Generated_Source\PSoC4/pwm1_PM.c ****     }
  64:Generated_Source\PSoC4/pwm1_PM.c ****     else
  65:Generated_Source\PSoC4/pwm1_PM.c ****     {
  66:Generated_Source\PSoC4/pwm1_PM.c ****         pwm1_backup.enableState = 0u;
  66              		.loc 1 66 0
  67 0012 0022     		movs	r2, #0
  68 0014 034B     		ldr	r3, .L5+4
  69 0016 1A70     		strb	r2, [r3]
  70              	.L4:
  67:Generated_Source\PSoC4/pwm1_PM.c ****     }
  68:Generated_Source\PSoC4/pwm1_PM.c **** 
  69:Generated_Source\PSoC4/pwm1_PM.c ****     pwm1_Stop();
  71              		.loc 1 69 0
  72 0018 FFF7FEFF 		bl	pwm1_Stop
  73              	.LVL0:
  70:Generated_Source\PSoC4/pwm1_PM.c ****     pwm1_SaveConfig();
  71:Generated_Source\PSoC4/pwm1_PM.c **** }
  74              		.loc 1 71 0
  75              		@ sp needed
  76 001c 10BD     		pop	{r4, pc}
  77              	.L6:
  78 001e C046     		.align	2
  79              	.L5:
  80 0020 00000540 		.word	1074069504
  81 0024 00000000 		.word	.LANCHOR0
  82              		.cfi_endproc
  83              	.LFE1:
  84              		.size	pwm1_Sleep, .-pwm1_Sleep
  85              		.section	.text.pwm1_RestoreConfig,"ax",%progbits
  86              		.align	2
  87              		.global	pwm1_RestoreConfig
  88              		.code	16
  89              		.thumb_func
  90              		.type	pwm1_RestoreConfig, %function
  91              	pwm1_RestoreConfig:
  92              	.LFB2:
  72:Generated_Source\PSoC4/pwm1_PM.c **** 
  73:Generated_Source\PSoC4/pwm1_PM.c **** 
  74:Generated_Source\PSoC4/pwm1_PM.c **** /*******************************************************************************
  75:Generated_Source\PSoC4/pwm1_PM.c **** * Function Name: pwm1_RestoreConfig
  76:Generated_Source\PSoC4/pwm1_PM.c **** ********************************************************************************
  77:Generated_Source\PSoC4/pwm1_PM.c **** *
  78:Generated_Source\PSoC4/pwm1_PM.c **** * Summary:
  79:Generated_Source\PSoC4/pwm1_PM.c **** *  All configuration registers are retention. Nothing to restore here.
ARM GAS  C:\Users\Usuario\AppData\Local\Temp\cce4Svqp.s 			page 4


  80:Generated_Source\PSoC4/pwm1_PM.c **** *
  81:Generated_Source\PSoC4/pwm1_PM.c **** * Parameters:
  82:Generated_Source\PSoC4/pwm1_PM.c **** *  None
  83:Generated_Source\PSoC4/pwm1_PM.c **** *
  84:Generated_Source\PSoC4/pwm1_PM.c **** * Return:
  85:Generated_Source\PSoC4/pwm1_PM.c **** *  None
  86:Generated_Source\PSoC4/pwm1_PM.c **** *
  87:Generated_Source\PSoC4/pwm1_PM.c **** *******************************************************************************/
  88:Generated_Source\PSoC4/pwm1_PM.c **** void pwm1_RestoreConfig(void)
  89:Generated_Source\PSoC4/pwm1_PM.c **** {
  93              		.loc 1 89 0
  94              		.cfi_startproc
  95              		@ args = 0, pretend = 0, frame = 0
  96              		@ frame_needed = 0, uses_anonymous_args = 0
  97              		@ link register save eliminated.
  90:Generated_Source\PSoC4/pwm1_PM.c **** 
  91:Generated_Source\PSoC4/pwm1_PM.c **** }
  98              		.loc 1 91 0
  99              		@ sp needed
 100 0000 7047     		bx	lr
 101              		.cfi_endproc
 102              	.LFE2:
 103              		.size	pwm1_RestoreConfig, .-pwm1_RestoreConfig
 104 0002 C046     		.section	.text.pwm1_Wakeup,"ax",%progbits
 105              		.align	2
 106              		.global	pwm1_Wakeup
 107              		.code	16
 108              		.thumb_func
 109              		.type	pwm1_Wakeup, %function
 110              	pwm1_Wakeup:
 111              	.LFB3:
  92:Generated_Source\PSoC4/pwm1_PM.c **** 
  93:Generated_Source\PSoC4/pwm1_PM.c **** 
  94:Generated_Source\PSoC4/pwm1_PM.c **** /*******************************************************************************
  95:Generated_Source\PSoC4/pwm1_PM.c **** * Function Name: pwm1_Wakeup
  96:Generated_Source\PSoC4/pwm1_PM.c **** ********************************************************************************
  97:Generated_Source\PSoC4/pwm1_PM.c **** *
  98:Generated_Source\PSoC4/pwm1_PM.c **** * Summary:
  99:Generated_Source\PSoC4/pwm1_PM.c **** *  Restores the user configuration and restores the enable state.
 100:Generated_Source\PSoC4/pwm1_PM.c **** *
 101:Generated_Source\PSoC4/pwm1_PM.c **** * Parameters:
 102:Generated_Source\PSoC4/pwm1_PM.c **** *  None
 103:Generated_Source\PSoC4/pwm1_PM.c **** *
 104:Generated_Source\PSoC4/pwm1_PM.c **** * Return:
 105:Generated_Source\PSoC4/pwm1_PM.c **** *  None
 106:Generated_Source\PSoC4/pwm1_PM.c **** *
 107:Generated_Source\PSoC4/pwm1_PM.c **** *******************************************************************************/
 108:Generated_Source\PSoC4/pwm1_PM.c **** void pwm1_Wakeup(void)
 109:Generated_Source\PSoC4/pwm1_PM.c **** {
 112              		.loc 1 109 0
 113              		.cfi_startproc
 114              		@ args = 0, pretend = 0, frame = 0
 115              		@ frame_needed = 0, uses_anonymous_args = 0
 116 0000 10B5     		push	{r4, lr}
 117              		.cfi_def_cfa_offset 8
 118              		.cfi_offset 4, -8
 119              		.cfi_offset 14, -4
ARM GAS  C:\Users\Usuario\AppData\Local\Temp\cce4Svqp.s 			page 5


 110:Generated_Source\PSoC4/pwm1_PM.c ****     pwm1_RestoreConfig();
 111:Generated_Source\PSoC4/pwm1_PM.c **** 
 112:Generated_Source\PSoC4/pwm1_PM.c ****     if(0u != pwm1_backup.enableState)
 120              		.loc 1 112 0
 121 0002 034B     		ldr	r3, .L10
 122 0004 1B78     		ldrb	r3, [r3]
 123 0006 002B     		cmp	r3, #0
 124 0008 01D0     		beq	.L8
 113:Generated_Source\PSoC4/pwm1_PM.c ****     {
 114:Generated_Source\PSoC4/pwm1_PM.c ****         pwm1_Enable();
 125              		.loc 1 114 0
 126 000a FFF7FEFF 		bl	pwm1_Enable
 127              	.LVL1:
 128              	.L8:
 115:Generated_Source\PSoC4/pwm1_PM.c ****     }
 116:Generated_Source\PSoC4/pwm1_PM.c **** }
 129              		.loc 1 116 0
 130              		@ sp needed
 131 000e 10BD     		pop	{r4, pc}
 132              	.L11:
 133              		.align	2
 134              	.L10:
 135 0010 00000000 		.word	.LANCHOR0
 136              		.cfi_endproc
 137              	.LFE3:
 138              		.size	pwm1_Wakeup, .-pwm1_Wakeup
 139              		.bss
 140              		.align	2
 141              		.set	.LANCHOR0,. + 0
 142              		.type	pwm1_backup, %object
 143              		.size	pwm1_backup, 1
 144              	pwm1_backup:
 145 0000 00       		.space	1
 146              		.text
 147              	.Letext0:
 148              		.file 2 "Generated_Source\\PSoC4\\cytypes.h"
 149              		.file 3 "Generated_Source\\PSoC4\\pwm1.h"
